{
  "_format": "hh-sol-artifact-1",
  "contractName": "EthMpwrLpStaking",
  "sourceName": "contracts/mpwr-lp-migration/mpwr-migration.sol",
  "abi": [
    {
      "inputs": [],
      "name": "AlreadyTaken",
      "type": "error"
    },
    {
      "inputs": [],
      "name": "FailedVerify",
      "type": "error"
    },
    {
      "inputs": [],
      "name": "InvalidAmount",
      "type": "error"
    },
    {
      "inputs": [],
      "name": "InvalidCaller",
      "type": "error"
    },
    {
      "inputs": [],
      "name": "InvalidOwner",
      "type": "error"
    },
    {
      "inputs": [],
      "name": "InvalidRound",
      "type": "error"
    },
    {
      "inputs": [],
      "name": "Locked",
      "type": "error"
    },
    {
      "inputs": [],
      "name": "ZeroAddress",
      "type": "error"
    },
    {
      "anonymous": false,
      "inputs": [
        {
          "indexed": false,
          "internalType": "uint8",
          "name": "version",
          "type": "uint8"
        }
      ],
      "name": "Initialized",
      "type": "event"
    },
    {
      "anonymous": false,
      "inputs": [
        {
          "indexed": true,
          "internalType": "address",
          "name": "previousOwner",
          "type": "address"
        },
        {
          "indexed": true,
          "internalType": "address",
          "name": "newOwner",
          "type": "address"
        }
      ],
      "name": "OwnershipTransferred",
      "type": "event"
    },
    {
      "anonymous": false,
      "inputs": [
        {
          "indexed": false,
          "internalType": "address",
          "name": "account",
          "type": "address"
        }
      ],
      "name": "Paused",
      "type": "event"
    },
    {
      "anonymous": false,
      "inputs": [
        {
          "indexed": true,
          "internalType": "address",
          "name": "owner",
          "type": "address"
        },
        {
          "indexed": false,
          "internalType": "uint256",
          "name": "depositId",
          "type": "uint256"
        },
        {
          "indexed": false,
          "internalType": "uint256",
          "name": "tokenId",
          "type": "uint256"
        },
        {
          "indexed": false,
          "internalType": "uint256",
          "name": "roundId",
          "type": "uint256"
        }
      ],
      "name": "StakeLP",
      "type": "event"
    },
    {
      "anonymous": false,
      "inputs": [
        {
          "indexed": false,
          "internalType": "address",
          "name": "account",
          "type": "address"
        }
      ],
      "name": "Unpaused",
      "type": "event"
    },
    {
      "anonymous": false,
      "inputs": [
        {
          "indexed": true,
          "internalType": "address",
          "name": "owner",
          "type": "address"
        },
        {
          "indexed": false,
          "internalType": "uint256",
          "name": "stakeId",
          "type": "uint256"
        },
        {
          "indexed": false,
          "internalType": "uint256",
          "name": "tokenId",
          "type": "uint256"
        },
        {
          "indexed": false,
          "internalType": "uint256",
          "name": "llcAmount",
          "type": "uint256"
        },
        {
          "indexed": false,
          "internalType": "uint256",
          "name": "reward",
          "type": "uint256"
        }
      ],
      "name": "Withdraw",
      "type": "event"
    },
    {
      "inputs": [],
      "name": "MIN_ETH_AMOUNT",
      "outputs": [
        {
          "internalType": "uint256",
          "name": "",
          "type": "uint256"
        }
      ],
      "stateMutability": "view",
      "type": "function"
    },
    {
      "inputs": [],
      "name": "balancesOf",
      "outputs": [
        {
          "internalType": "uint256",
          "name": "ethAmount",
          "type": "uint256"
        },
        {
          "internalType": "uint256",
          "name": "mpwrAmount",
          "type": "uint256"
        },
        {
          "internalType": "uint256",
          "name": "wethAmount",
          "type": "uint256"
        }
      ],
      "stateMutability": "view",
      "type": "function"
    },
    {
      "inputs": [],
      "name": "currentRound",
      "outputs": [
        {
          "internalType": "uint256",
          "name": "",
          "type": "uint256"
        }
      ],
      "stateMutability": "view",
      "type": "function"
    },
    {
      "inputs": [
        {
          "internalType": "address",
          "name": "user",
          "type": "address"
        },
        {
          "internalType": "uint256",
          "name": "mpwrInAmount",
          "type": "uint256"
        },
        {
          "internalType": "uint256",
          "name": "round",
          "type": "uint256"
        },
        {
          "internalType": "uint256",
          "name": "lock",
          "type": "uint256"
        },
        {
          "internalType": "uint256",
          "name": "ethAmount",
          "type": "uint256"
        },
        {
          "internalType": "uint256",
          "name": "timestamp",
          "type": "uint256"
        },
        {
          "internalType": "bytes",
          "name": "signature",
          "type": "bytes"
        }
      ],
      "name": "deposit",
      "outputs": [],
      "stateMutability": "payable",
      "type": "function"
    },
    {
      "inputs": [
        {
          "internalType": "uint256",
          "name": "",
          "type": "uint256"
        }
      ],
      "name": "deposits",
      "outputs": [
        {
          "internalType": "address",
          "name": "owner",
          "type": "address"
        },
        {
          "internalType": "uint256",
          "name": "id",
          "type": "uint256"
        },
        {
          "internalType": "uint256",
          "name": "ethAmount",
          "type": "uint256"
        },
        {
          "internalType": "uint256",
          "name": "mpwrAmount",
          "type": "uint256"
        },
        {
          "internalType": "uint256",
          "name": "lock",
          "type": "uint256"
        },
        {
          "internalType": "uint256",
          "name": "reward",
          "type": "uint256"
        },
        {
          "internalType": "uint256",
          "name": "llc",
          "type": "uint256"
        },
        {
          "internalType": "uint256",
          "name": "timestamp",
          "type": "uint256"
        }
      ],
      "stateMutability": "view",
      "type": "function"
    },
    {
      "inputs": [
        {
          "internalType": "address",
          "name": "_owner",
          "type": "address"
        }
      ],
      "name": "depositsOfOwner",
      "outputs": [
        {
          "internalType": "uint256[]",
          "name": "",
          "type": "uint256[]"
        }
      ],
      "stateMutability": "view",
      "type": "function"
    },
    {
      "inputs": [
        {
          "internalType": "address",
          "name": "_wethToken",
          "type": "address"
        },
        {
          "internalType": "address",
          "name": "_mpwrToken",
          "type": "address"
        },
        {
          "internalType": "address",
          "name": "_llcGift",
          "type": "address"
        },
        {
          "internalType": "address",
          "name": "_validator",
          "type": "address"
        },
        {
          "internalType": "address",
          "name": "_position",
          "type": "address"
        }
      ],
      "name": "initialize",
      "outputs": [],
      "stateMutability": "nonpayable",
      "type": "function"
    },
    {
      "inputs": [],
      "name": "llcGift",
      "outputs": [
        {
          "internalType": "address",
          "name": "",
          "type": "address"
        }
      ],
      "stateMutability": "view",
      "type": "function"
    },
    {
      "inputs": [],
      "name": "mpwrToken",
      "outputs": [
        {
          "internalType": "address",
          "name": "",
          "type": "address"
        }
      ],
      "stateMutability": "view",
      "type": "function"
    },
    {
      "inputs": [],
      "name": "nonfungiblePositionManager",
      "outputs": [
        {
          "internalType": "contract INonfungiblePositionManager",
          "name": "",
          "type": "address"
        }
      ],
      "stateMutability": "view",
      "type": "function"
    },
    {
      "inputs": [],
      "name": "owner",
      "outputs": [
        {
          "internalType": "address",
          "name": "",
          "type": "address"
        }
      ],
      "stateMutability": "view",
      "type": "function"
    },
    {
      "inputs": [],
      "name": "pause",
      "outputs": [],
      "stateMutability": "nonpayable",
      "type": "function"
    },
    {
      "inputs": [],
      "name": "paused",
      "outputs": [
        {
          "internalType": "bool",
          "name": "",
          "type": "bool"
        }
      ],
      "stateMutability": "view",
      "type": "function"
    },
    {
      "inputs": [],
      "name": "renounceOwnership",
      "outputs": [],
      "stateMutability": "nonpayable",
      "type": "function"
    },
    {
      "inputs": [
        {
          "internalType": "uint256",
          "name": "depositId",
          "type": "uint256"
        }
      ],
      "name": "rewardOf",
      "outputs": [
        {
          "internalType": "uint256",
          "name": "reward",
          "type": "uint256"
        }
      ],
      "stateMutability": "view",
      "type": "function"
    },
    {
      "inputs": [
        {
          "internalType": "uint256",
          "name": "depositId",
          "type": "uint256"
        }
      ],
      "name": "rewardOfLLC",
      "outputs": [
        {
          "internalType": "uint256",
          "name": "",
          "type": "uint256"
        }
      ],
      "stateMutability": "view",
      "type": "function"
    },
    {
      "inputs": [
        {
          "internalType": "uint256",
          "name": "_round",
          "type": "uint256"
        }
      ],
      "name": "setCurrentRound",
      "outputs": [],
      "stateMutability": "nonpayable",
      "type": "function"
    },
    {
      "inputs": [
        {
          "internalType": "address",
          "name": "_validator",
          "type": "address"
        }
      ],
      "name": "setValidator",
      "outputs": [],
      "stateMutability": "nonpayable",
      "type": "function"
    },
    {
      "inputs": [],
      "name": "totalStaked",
      "outputs": [
        {
          "internalType": "uint256",
          "name": "",
          "type": "uint256"
        }
      ],
      "stateMutability": "view",
      "type": "function"
    },
    {
      "inputs": [
        {
          "internalType": "address",
          "name": "newOwner",
          "type": "address"
        }
      ],
      "name": "transferOwnership",
      "outputs": [],
      "stateMutability": "nonpayable",
      "type": "function"
    },
    {
      "inputs": [],
      "name": "unpause",
      "outputs": [],
      "stateMutability": "nonpayable",
      "type": "function"
    },
    {
      "inputs": [],
      "name": "wethToken",
      "outputs": [
        {
          "internalType": "address",
          "name": "",
          "type": "address"
        }
      ],
      "stateMutability": "view",
      "type": "function"
    },
    {
      "inputs": [
        {
          "internalType": "uint256",
          "name": "depositId",
          "type": "uint256"
        }
      ],
      "name": "withdraw",
      "outputs": [],
      "stateMutability": "nonpayable",
      "type": "function"
    },
    {
      "inputs": [
        {
          "internalType": "address",
          "name": "to",
          "type": "address"
        }
      ],
      "name": "withdrawETH",
      "outputs": [],
      "stateMutability": "nonpayable",
      "type": "function"
    },
    {
      "inputs": [
        {
          "internalType": "address",
          "name": "to",
          "type": "address"
        }
      ],
      "name": "withdrawMPWR",
      "outputs": [],
      "stateMutability": "nonpayable",
      "type": "function"
    },
    {
      "inputs": [
        {
          "internalType": "address",
          "name": "to",
          "type": "address"
        }
      ],
      "name": "withdrawWETH",
      "outputs": [],
      "stateMutability": "nonpayable",
      "type": "function"
    }
  ],
  "bytecode": "0x608060405234801561001057600080fd5b50612b2b806100206000396000f3fe6080604052600436106101a15760003560e01c8063715018a6116100e15780638da5cb5b1161008a578063b44a272211610064578063b44a272214610507578063c5bcfbf314610527578063daa3770c14610547578063f2fde38b1461057757600080fd5b80638da5cb5b1461041c578063a20bd9741461043a578063b02c43d01461045a57600080fd5b806388428845116100bb57806388428845146103b95780638a19c8bc146103d95780638c8423fb146103ef57600080fd5b8063715018a614610379578063817b1cd21461038e5780638456cb59146103a457600080fd5b806333ee5f741161014e5780634b57b0be116101285780634b57b0be146103035780634f9c3eed146103235780635c975abb14610336578063690d83201461035957600080fd5b806333ee5f741461029e5780633bc91e28146102ce5780633f4ba83a146102ee57600080fd5b806319d37e4a1161017f57806319d37e4a146102255780631faee62d146102555780632e1a7d4d1461027e57600080fd5b80631327d3d8146101a6578063135d95e2146101c85780631459457a14610205575b600080fd5b3480156101b257600080fd5b506101c66101c1366004612578565b610597565b005b3480156101d457600080fd5b5060cb546101e8906001600160a01b031681565b6040516001600160a01b0390911681526020015b60405180910390f35b34801561021157600080fd5b506101c6610220366004612593565b610613565b34801561023157600080fd5b5061023a61072f565b604080519384526020840192909252908201526060016101fc565b34801561026157600080fd5b5061027066038d7ea4c6800081565b6040519081526020016101fc565b34801561028a57600080fd5b506101c66102993660046125f8565b610814565b3480156102aa57600080fd5b506102706102b93660046125f8565b600090815260d1602052604090206006015490565b3480156102da57600080fd5b506101c66102e93660046125f8565b610afa565b3480156102fa57600080fd5b506101c6610b47565b34801561030f57600080fd5b5060ca546101e8906001600160a01b031681565b6101c6610331366004612627565b610b99565b34801561034257600080fd5b5060655460ff1660405190151581526020016101fc565b34801561036557600080fd5b506101c6610374366004612578565b61106d565b34801561038557600080fd5b506101c66110ee565b34801561039a57600080fd5b5061027060ce5481565b3480156103b057600080fd5b506101c6611140565b3480156103c557600080fd5b506101c66103d4366004612578565b611190565b3480156103e557600080fd5b5061027060cd5481565b3480156103fb57600080fd5b5061040f61040a366004612578565b611264565b6040516101fc9190612719565b34801561042857600080fd5b506033546001600160a01b03166101e8565b34801561044657600080fd5b5060c9546101e8906001600160a01b031681565b34801561046657600080fd5b506104c26104753660046125f8565b60d160205260009081526040902080546001820154600283015460038401546004850154600586015460068701546007909701546001600160a01b03909616969495939492939192909188565b604080516001600160a01b0390991689526020890197909752958701949094526060860192909252608085015260a084015260c083015260e0820152610100016101fc565b34801561051357600080fd5b5060cf546101e8906001600160a01b031681565b34801561053357600080fd5b506101c6610542366004612578565b611330565b34801561055357600080fd5b506102706105623660046125f8565b600090815260d1602052604090206005015490565b34801561058357600080fd5b506101c6610592366004612578565b61145f565b6033546001600160a01b031633146105e45760405162461bcd60e51b81526020600482018190526024820152600080516020612aff83398151915260448201526064015b60405180910390fd5b60cc805473ffffffffffffffffffffffffffffffffffffffff19166001600160a01b0392909216919091179055565b600061061f600161152f565b90508015610637576000805461ff0019166101001790555b61063f61164a565b6106476116b5565b61064f611728565b61065761179b565b6001600160a01b03851661067e5760405163d92e233d60e01b815260040160405180910390fd5b60ca805473ffffffffffffffffffffffffffffffffffffffff199081166001600160a01b038981169190911790925560c98054821688841617905560cb8054821687841617905560cc8054821686841617905560cf80549091169184169190911790558015610727576000805461ff0019169055604051600181527f7f26b83ff96e1f2b6a682f133852f6798a09c465da95921460cefb38474024989060200160405180910390a15b505050505050565b60c9546040516370a0823160e01b8152306004820152479160009182916001600160a01b0316906370a0823190602401602060405180830381865afa15801561077c573d6000803e3d6000fd5b505050506040513d601f19601f820116820180604052508101906107a0919061275d565b60ca546040516370a0823160e01b81523060048201529193506001600160a01b0316906370a0823190602401602060405180830381865afa1580156107e9573d6000803e3d6000fd5b505050506040513d601f19601f8201168201806040525081019061080d919061275d565b9050909192565b60655460ff161561085a5760405162461bcd60e51b815260206004820152601060248201526f14185d5cd8589b194e881c185d5cd95960821b60448201526064016105db565b6002609754036108ac5760405162461bcd60e51b815260206004820152601f60248201527f5265656e7472616e637947756172643a207265656e7472616e742063616c6c0060448201526064016105db565b60026097819055600082815260d1602090815260409182902082516101008101845281546001600160a01b031680825260018301549382019390935293810154928401929092526003820154606084015260048201546080840152600582015460a0840152600682015460c084015260079091015460e08301523314610945576040516349e27cff60e01b815260040160405180910390fd5b4281608001518260e0015161095a919061278c565b1115610979576040516303cb96db60e21b815260040160405180910390fd5b600082815260d1602052604081206005015460c9549091506001600160a01b031663a9059cbb336040516001600160e01b031960e084901b1681526001600160a01b039091166004820152602481018490526044016020604051808303816000875af11580156109ed573d6000803e3d6000fd5b505050506040513d601f19601f82011682018060405250810190610a1191906127a4565b5060cf546001600160a01b03166323b872dd303360208601516040516001600160e01b031960e086901b1681526001600160a01b0393841660048201529290911660248301526044820152606401600060405180830381600087803b158015610a7957600080fd5b505af1158015610a8d573d6000803e3d6000fd5b5050505060c0820151610aa0338261180e565b602080840151604080518781529283019190915281018290526060810183905233907fe08737ac48a1dab4b1a46c7dc9398bd5bfc6d7ad6fabb7cd8caa254de14def359060800160405180910390a2505060016097555050565b6033546001600160a01b03163314610b425760405162461bcd60e51b81526020600482018190526024820152600080516020612aff83398151915260448201526064016105db565b60cd55565b6033546001600160a01b03163314610b8f5760405162461bcd60e51b81526020600482018190526024820152600080516020612aff83398151915260448201526064016105db565b610b976118f9565b565b60655460ff1615610bdf5760405162461bcd60e51b815260206004820152601060248201526f14185d5cd8589b194e881c185d5cd95960821b60448201526064016105db565b600260975403610c315760405162461bcd60e51b815260206004820152601f60248201527f5265656e7472616e637947756172643a207265656e7472616e742063616c6c0060448201526064016105db565b60026097556001600160a01b0387163314610c5f576040516348f5c3ed60e01b815260040160405180910390fd5b8460cd54141580610c70575060cd54155b15610c8e576040516328ad4a9560e21b815260040160405180910390fd5b66038d7ea4c68000341015610cb65760405163162908e360e11b815260040160405180910390fd5b33600090815260d06020526040812054906002610cd46001896127c6565b83901c610ce191906127f3565b905080600103610d0457604051630c0e5cf760e21b815260040160405180910390fd5b610d0f6001886127c6565b610d1d906001901b8361278c565b33600081815260d060205260409020829055909250610d4190888a89898989611995565b610d5e576040516370ef913d60e11b815260040160405180910390fd5b60ca60009054906101000a90046001600160a01b03166001600160a01b031663d0e30db0346040518263ffffffff1660e01b81526004016000604051808303818588803b158015610dae57600080fd5b505af1158015610dc2573d6000803e3d6000fd5b50505050506000806000610dd6348c611aa5565b93509350509250600060ce6000815480929190610df290612807565b9190505590506000670de0b6b3a7640000348c62ed4e0014610e15576001610e18565b60025b60ff16610e259190612820565b610e2f919061283f565b90506040518061010001604052808f6001600160a01b031681526020018681526020018581526020018481526020018c81526020018b81526020018281526020014281525060d1600084815260200190815260200160002060008201518160000160006101000a8154816001600160a01b0302191690836001600160a01b031602179055506020820151816001015560408201518160020155606082015181600301556080820151816004015560a0820151816005015560c0820151816006015560e082015181600701559050503484101561100c5760ca5460cf5460405163095ea7b360e01b81526001600160a01b0391821660048201526000602482015291169063095ea7b3906044016020604051808303816000875af1158015610f5a573d6000803e3d6000fd5b505050506040513d601f19601f82011682018060405250810190610f7e91906127a4565b5060ca546001600160a01b031663a9059cbb33610f9b87346127c6565b6040516001600160e01b031960e085901b1681526001600160a01b03909216600483015260248201526044016020604051808303816000875af1158015610fe6573d6000803e3d6000fd5b505050506040513d601f19601f8201168201806040525081019061100a91906127a4565b505b60408051838152602081018790529081018d90526001600160a01b038f16907f431403288ad3586bd94cfc000488f43307770b4d3115089baff0e93bde15ea7e9060600160405180910390a250506001609755505050505050505050505050565b6033546001600160a01b031633146110b55760405162461bcd60e51b81526020600482018190526024820152600080516020612aff83398151915260448201526064016105db565b6040516001600160a01b038216904780156108fc02916000818181858888f193505050501580156110ea573d6000803e3d6000fd5b5050565b6033546001600160a01b031633146111365760405162461bcd60e51b81526020600482018190526024820152600080516020612aff83398151915260448201526064016105db565b610b976000611cd5565b6033546001600160a01b031633146111885760405162461bcd60e51b81526020600482018190526024820152600080516020612aff83398151915260448201526064016105db565b610b97611d34565b6033546001600160a01b031633146111d85760405162461bcd60e51b81526020600482018190526024820152600080516020612aff83398151915260448201526064016105db565b60c9546040516370a0823160e01b81523060048201526001600160a01b039091169060009082906370a0823190602401602060405180830381865afa158015611225573d6000803e3d6000fd5b505050506040513d601f19601f82011682018060405250810190611249919061275d565b905061125f6001600160a01b0383168483611daf565b505050565b606060008060cd5467ffffffffffffffff81111561128457611284612611565b6040519080825280602002602001820160405280156112ad578160200160208202803683370190505b50905060005b60ce54811080156112c5575060cd5483105b1561132857600081815260d160205260409020546001600160a01b03808716911603611316578082846112f781612807565b95508151811061130957611309612853565b6020026020010181815250505b8061132081612807565b9150506112b3565b509392505050565b6033546001600160a01b031633146113785760405162461bcd60e51b81526020600482018190526024820152600080516020612aff83398151915260448201526064016105db565b60ca546040516370a0823160e01b81523060048201526001600160a01b0390911690819063a9059cbb90849083906370a0823190602401602060405180830381865afa1580156113cc573d6000803e3d6000fd5b505050506040513d601f19601f820116820180604052508101906113f0919061275d565b6040516001600160e01b031960e085901b1681526001600160a01b03909216600483015260248201526044016020604051808303816000875af115801561143b573d6000803e3d6000fd5b505050506040513d601f19601f8201168201806040525081019061125f91906127a4565b6033546001600160a01b031633146114a75760405162461bcd60e51b81526020600482018190526024820152600080516020612aff83398151915260448201526064016105db565b6001600160a01b0381166115235760405162461bcd60e51b815260206004820152602660248201527f4f776e61626c653a206e6577206f776e657220697320746865207a65726f206160448201527f646472657373000000000000000000000000000000000000000000000000000060648201526084016105db565b61152c81611cd5565b50565b60008054610100900460ff16156115bd578160ff1660011480156115525750303b155b6115b55760405162461bcd60e51b815260206004820152602e60248201527f496e697469616c697a61626c653a20636f6e747261637420697320616c72656160448201526d191e481a5b9a5d1a585b1a5e995960921b60648201526084016105db565b506000919050565b60005460ff80841691161061162b5760405162461bcd60e51b815260206004820152602e60248201527f496e697469616c697a61626c653a20636f6e747261637420697320616c72656160448201526d191e481a5b9a5d1a585b1a5e995960921b60648201526084016105db565b506000805460ff191660ff92909216919091179055600190565b919050565b600054610100900460ff16610b975760405162461bcd60e51b815260206004820152602b60248201527f496e697469616c697a61626c653a20636f6e7472616374206973206e6f74206960448201526a6e697469616c697a696e6760a81b60648201526084016105db565b600054610100900460ff166117205760405162461bcd60e51b815260206004820152602b60248201527f496e697469616c697a61626c653a20636f6e7472616374206973206e6f74206960448201526a6e697469616c697a696e6760a81b60648201526084016105db565b610b97611e16565b600054610100900460ff166117935760405162461bcd60e51b815260206004820152602b60248201527f496e697469616c697a61626c653a20636f6e7472616374206973206e6f74206960448201526a6e697469616c697a696e6760a81b60648201526084016105db565b610b97611e8a565b600054610100900460ff166118065760405162461bcd60e51b815260206004820152602b60248201527f496e697469616c697a61626c653a20636f6e7472616374206973206e6f74206960448201526a6e697469616c697a696e6760a81b60648201526084016105db565b610b97611f01565b60cb5460405163da62fba960e01b81526001600160a01b038481166004830152909116906000908390839063da62fba990602401602060405180830381865afa15801561185f573d6000803e3d6000fd5b505050506040513d601f19601f82011682018060405250810190611883919061275d565b61188d919061278c565b60405163f6cdbbe360e01b81526001600160a01b038681166004830152602482018390529192509083169063f6cdbbe390604401600060405180830381600087803b1580156118db57600080fd5b505af11580156118ef573d6000803e3d6000fd5b5050505050505050565b60655460ff1661194b5760405162461bcd60e51b815260206004820152601460248201527f5061757361626c653a206e6f742070617573656400000000000000000000000060448201526064016105db565b6065805460ff191690557f5db9ee0a495bf2e6ff9c91a7834c1ba4fdd244a5e8aa4e537bd38aeae4b073aa335b6040516001600160a01b03909116815260200160405180910390a1565b60408051606089901b6bffffffffffffffffffffffff19166020808301919091527fbcb0d811d7784253379bb21ae5e795fa59f853fd31c5ed16022a5250b893e86d603483015260548201899052607482018890526094820187905260b4820186905260d48083018690528351808403909101815260f4830184528051908201207f19457468657265756d205369676e6564204d6573736167653a0a333200000000610114840152610130808401829052845180850390910181526101509093019093528151910120600091906000611a6e8286611f73565b60cc549091506001600160a01b03808316911614611a925760009350505050611a9a565b600193505050505b979650505050505050565b60ca5460cf5460405163095ea7b360e01b81526001600160a01b03918216600482015260248101859052600092839283928392919091169063095ea7b3906044016020604051808303816000875af1158015611b05573d6000803e3d6000fd5b505050506040513d601f19601f82011682018060405250810190611b2991906127a4565b5060c95460cf5460405163095ea7b360e01b81526001600160a01b0391821660048201526024810188905291169063095ea7b3906044016020604051808303816000875af1158015611b7f573d6000803e3d6000fd5b505050506040513d601f19601f82011682018060405250810190611ba391906127a4565b50604080516101608101825260ca546001600160a01b03908116825260c954166020820152610bb89181019190915260009060608101603c611be981620d89e719612869565b611bf391906128a3565b60020b8152602001603c80611c0b620d89e719612930565b611c159190612869565b611c1f91906128a3565b60020b815260208101899052604080820189905260006060830181905260808301523060a08301524260c09092019190915260cf549051634418b22b60e11b81529192506001600160a01b031690638831645690611c81908490600401612952565b6080604051808303816000875af1158015611ca0573d6000803e3d6000fd5b505050506040513d601f19601f82011682018060405250810190611cc49190612a16565b929a91995097509095509350505050565b603380546001600160a01b0383811673ffffffffffffffffffffffffffffffffffffffff19831681179093556040519116919082907f8be0079c531659141344cd1fd0a4f28419497f9722a3daafe3b4186f6b6457e090600090a35050565b60655460ff1615611d7a5760405162461bcd60e51b815260206004820152601060248201526f14185d5cd8589b194e881c185d5cd95960821b60448201526064016105db565b6065805460ff191660011790557f62e78cea01bee320cd4e420270b5ea74000d11b0c9f74754ebdbfc544b05a2586119783390565b604080516001600160a01b038416602482015260448082018490528251808303909101815260649091019091526020810180517bffffffffffffffffffffffffffffffffffffffffffffffffffffffff1663a9059cbb60e01b17905261125f908490611f8f565b600054610100900460ff16611e815760405162461bcd60e51b815260206004820152602b60248201527f496e697469616c697a61626c653a20636f6e7472616374206973206e6f74206960448201526a6e697469616c697a696e6760a81b60648201526084016105db565b610b9733611cd5565b600054610100900460ff16611ef55760405162461bcd60e51b815260206004820152602b60248201527f496e697469616c697a61626c653a20636f6e7472616374206973206e6f74206960448201526a6e697469616c697a696e6760a81b60648201526084016105db565b6065805460ff19169055565b600054610100900460ff16611f6c5760405162461bcd60e51b815260206004820152602b60248201527f496e697469616c697a61626c653a20636f6e7472616374206973206e6f74206960448201526a6e697469616c697a696e6760a81b60648201526084016105db565b6001609755565b6000806000611f828585612074565b91509150611328816120e2565b6000611fe4826040518060400160405280602081526020017f5361666545524332303a206c6f772d6c6576656c2063616c6c206661696c6564815250856001600160a01b03166122989092919063ffffffff16565b80519091501561125f578080602001905181019061200291906127a4565b61125f5760405162461bcd60e51b815260206004820152602a60248201527f5361666545524332303a204552433230206f7065726174696f6e20646964206e60448201527f6f7420737563636565640000000000000000000000000000000000000000000060648201526084016105db565b60008082516041036120aa5760208301516040840151606085015160001a61209e878285856122b1565b945094505050506120db565b82516040036120d357602083015160408401516120c886838361239e565b9350935050506120db565b506000905060025b9250929050565b60008160048111156120f6576120f6612a69565b036120fe5750565b600181600481111561211257612112612a69565b0361215f5760405162461bcd60e51b815260206004820152601860248201527f45434453413a20696e76616c6964207369676e6174757265000000000000000060448201526064016105db565b600281600481111561217357612173612a69565b036121c05760405162461bcd60e51b815260206004820152601f60248201527f45434453413a20696e76616c6964207369676e6174757265206c656e6774680060448201526064016105db565b60038160048111156121d4576121d4612a69565b0361222c5760405162461bcd60e51b815260206004820152602260248201527f45434453413a20696e76616c6964207369676e6174757265202773272076616c604482015261756560f01b60648201526084016105db565b600481600481111561224057612240612a69565b0361152c5760405162461bcd60e51b815260206004820152602260248201527f45434453413a20696e76616c6964207369676e6174757265202776272076616c604482015261756560f01b60648201526084016105db565b60606122a784846000856123f0565b90505b9392505050565b6000807f7fffffffffffffffffffffffffffffff5d576e7357a4501ddfe92f46681b20a08311156122e85750600090506003612395565b8460ff16601b1415801561230057508460ff16601c14155b156123115750600090506004612395565b6040805160008082526020820180845289905260ff881692820192909252606081018690526080810185905260019060a0016020604051602081039080840390855afa158015612365573d6000803e3d6000fd5b5050604051601f1901519150506001600160a01b03811661238e57600060019250925050612395565b9150600090505b94509492505050565b6000807f7fffffffffffffffffffffffffffffffffffffffffffffffffffffffffffffff8316816123d460ff86901c601b61278c565b90506123e2878288856122b1565b935093505050935093915050565b6060824710156124685760405162461bcd60e51b815260206004820152602660248201527f416464726573733a20696e73756666696369656e742062616c616e636520666f60448201527f722063616c6c000000000000000000000000000000000000000000000000000060648201526084016105db565b6001600160a01b0385163b6124bf5760405162461bcd60e51b815260206004820152601d60248201527f416464726573733a2063616c6c20746f206e6f6e2d636f6e747261637400000060448201526064016105db565b600080866001600160a01b031685876040516124db9190612aaf565b60006040518083038185875af1925050503d8060008114612518576040519150601f19603f3d011682016040523d82523d6000602084013e61251d565b606091505b5091509150611a9a828286606083156125375750816122aa565b8251156125475782518084602001fd5b8160405162461bcd60e51b81526004016105db9190612acb565b80356001600160a01b038116811461164557600080fd5b60006020828403121561258a57600080fd5b6122aa82612561565b600080600080600060a086880312156125ab57600080fd5b6125b486612561565b94506125c260208701612561565b93506125d060408701612561565b92506125de60608701612561565b91506125ec60808701612561565b90509295509295909350565b60006020828403121561260a57600080fd5b5035919050565b634e487b7160e01b600052604160045260246000fd5b600080600080600080600060e0888a03121561264257600080fd5b61264b88612561565b96506020880135955060408801359450606088013593506080880135925060a0880135915060c088013567ffffffffffffffff8082111561268b57600080fd5b818a0191508a601f83011261269f57600080fd5b8135818111156126b1576126b1612611565b604051601f8201601f19908116603f011681019083821181831017156126d9576126d9612611565b816040528281528d60208487010111156126f257600080fd5b82602086016020830137600060208483010152809550505050505092959891949750929550565b6020808252825182820181905260009190848201906040850190845b8181101561275157835183529284019291840191600101612735565b50909695505050505050565b60006020828403121561276f57600080fd5b5051919050565b634e487b7160e01b600052601160045260246000fd5b6000821982111561279f5761279f612776565b500190565b6000602082840312156127b657600080fd5b815180151581146122aa57600080fd5b6000828210156127d8576127d8612776565b500390565b634e487b7160e01b600052601260045260246000fd5b600082612802576128026127dd565b500690565b60006001820161281957612819612776565b5060010190565b600081600019048311821515161561283a5761283a612776565b500290565b60008261284e5761284e6127dd565b500490565b634e487b7160e01b600052603260045260246000fd5b60008160020b8360020b80612880576128806127dd565b627fffff1982146000198214161561289a5761289a612776565b90059392505050565b60008160020b8360020b627fffff6000821360008413838304851182821616156128cf576128cf612776565b627fffff1960008512828116878305871216156128ee576128ee612776565b6000871292508582058712848416161561290a5761290a612776565b8585058712818416161561292057612920612776565b5050509290910295945050505050565b60008160020b627fffff19810361294957612949612776565b60000392915050565b81516001600160a01b031681526101608101602083015161297e60208401826001600160a01b03169052565b506040830151612995604084018262ffffff169052565b5060608301516129aa606084018260020b9052565b5060808301516129bf608084018260020b9052565b5060a083015160a083015260c083015160c083015260e083015160e083015261010080840151818401525061012080840151612a05828501826001600160a01b03169052565b505061014092830151919092015290565b60008060008060808587031215612a2c57600080fd5b8451935060208501516fffffffffffffffffffffffffffffffff81168114612a5357600080fd5b6040860151606090960151949790965092505050565b634e487b7160e01b600052602160045260246000fd5b60005b83811015612a9a578181015183820152602001612a82565b83811115612aa9576000848401525b50505050565b60008251612ac1818460208701612a7f565b9190910192915050565b6020815260008251806020840152612aea816040850160208701612a7f565b601f01601f1916919091016040019291505056fe4f776e61626c653a2063616c6c6572206973206e6f7420746865206f776e6572a164736f6c634300080d000a",
  "linkReferences": {},
  "deployedLinkReferences": {}
}