{
  "_format": "hh-sol-artifact-1",
  "contractName": "MPWRStakingKlaytn",
  "sourceName": "contracts/mpwr-lp-migration/mpwr-staking-klaytn.sol",
  "abi": [
    {
      "inputs": [],
      "name": "AlreadyTaken",
      "type": "error"
    },
    {
      "inputs": [],
      "name": "FailedVerify",
      "type": "error"
    },
    {
      "inputs": [],
      "name": "InvalidCaller",
      "type": "error"
    },
    {
      "inputs": [],
      "name": "InvalidRound",
      "type": "error"
    },
    {
      "inputs": [],
      "name": "ZeroAddress",
      "type": "error"
    },
    {
      "inputs": [],
      "name": "ZeroAmount",
      "type": "error"
    },
    {
      "anonymous": false,
      "inputs": [
        {
          "indexed": true,
          "internalType": "address",
          "name": "user",
          "type": "address"
        },
        {
          "indexed": false,
          "internalType": "uint256",
          "name": "round",
          "type": "uint256"
        },
        {
          "indexed": false,
          "internalType": "uint256",
          "name": "amount",
          "type": "uint256"
        },
        {
          "indexed": false,
          "internalType": "uint256",
          "name": "lock",
          "type": "uint256"
        },
        {
          "indexed": false,
          "internalType": "uint256",
          "name": "timestamp",
          "type": "uint256"
        },
        {
          "indexed": false,
          "internalType": "bytes",
          "name": "signature",
          "type": "bytes"
        }
      ],
      "name": "Deposit",
      "type": "event"
    },
    {
      "anonymous": false,
      "inputs": [
        {
          "indexed": false,
          "internalType": "address",
          "name": "_mpwr",
          "type": "address"
        },
        {
          "indexed": false,
          "internalType": "address",
          "name": "_treasury",
          "type": "address"
        },
        {
          "indexed": false,
          "internalType": "address",
          "name": "_validator",
          "type": "address"
        }
      ],
      "name": "Initialize",
      "type": "event"
    },
    {
      "anonymous": false,
      "inputs": [
        {
          "indexed": false,
          "internalType": "uint8",
          "name": "version",
          "type": "uint8"
        }
      ],
      "name": "Initialized",
      "type": "event"
    },
    {
      "anonymous": false,
      "inputs": [
        {
          "indexed": true,
          "internalType": "address",
          "name": "previousOwner",
          "type": "address"
        },
        {
          "indexed": true,
          "internalType": "address",
          "name": "newOwner",
          "type": "address"
        }
      ],
      "name": "OwnershipTransferred",
      "type": "event"
    },
    {
      "anonymous": false,
      "inputs": [
        {
          "indexed": false,
          "internalType": "address",
          "name": "account",
          "type": "address"
        }
      ],
      "name": "Paused",
      "type": "event"
    },
    {
      "anonymous": false,
      "inputs": [
        {
          "indexed": false,
          "internalType": "address",
          "name": "account",
          "type": "address"
        }
      ],
      "name": "Unpaused",
      "type": "event"
    },
    {
      "inputs": [],
      "name": "NAME_HASH",
      "outputs": [
        {
          "internalType": "uint256",
          "name": "",
          "type": "uint256"
        }
      ],
      "stateMutability": "view",
      "type": "function"
    },
    {
      "inputs": [],
      "name": "currentRound",
      "outputs": [
        {
          "internalType": "uint256",
          "name": "",
          "type": "uint256"
        }
      ],
      "stateMutability": "view",
      "type": "function"
    },
    {
      "inputs": [
        {
          "internalType": "address",
          "name": "user",
          "type": "address"
        },
        {
          "internalType": "uint256",
          "name": "round",
          "type": "uint256"
        },
        {
          "internalType": "uint256",
          "name": "amount",
          "type": "uint256"
        },
        {
          "internalType": "uint256",
          "name": "lock",
          "type": "uint256"
        },
        {
          "internalType": "uint256",
          "name": "apr",
          "type": "uint256"
        },
        {
          "internalType": "uint256",
          "name": "timestamp",
          "type": "uint256"
        },
        {
          "internalType": "bytes",
          "name": "signature",
          "type": "bytes"
        }
      ],
      "name": "deposit",
      "outputs": [],
      "stateMutability": "nonpayable",
      "type": "function"
    },
    {
      "inputs": [
        {
          "internalType": "address",
          "name": "_mpwrToken",
          "type": "address"
        },
        {
          "internalType": "address",
          "name": "_treasury",
          "type": "address"
        },
        {
          "internalType": "address",
          "name": "_validator",
          "type": "address"
        }
      ],
      "name": "initialize",
      "outputs": [],
      "stateMutability": "nonpayable",
      "type": "function"
    },
    {
      "inputs": [],
      "name": "mpwrToken",
      "outputs": [
        {
          "internalType": "contract IERC20Upgradeable",
          "name": "",
          "type": "address"
        }
      ],
      "stateMutability": "view",
      "type": "function"
    },
    {
      "inputs": [],
      "name": "owner",
      "outputs": [
        {
          "internalType": "address",
          "name": "",
          "type": "address"
        }
      ],
      "stateMutability": "view",
      "type": "function"
    },
    {
      "inputs": [],
      "name": "pause",
      "outputs": [],
      "stateMutability": "nonpayable",
      "type": "function"
    },
    {
      "inputs": [],
      "name": "paused",
      "outputs": [
        {
          "internalType": "bool",
          "name": "",
          "type": "bool"
        }
      ],
      "stateMutability": "view",
      "type": "function"
    },
    {
      "inputs": [],
      "name": "renounceOwnership",
      "outputs": [],
      "stateMutability": "nonpayable",
      "type": "function"
    },
    {
      "inputs": [
        {
          "internalType": "uint256",
          "name": "_round",
          "type": "uint256"
        }
      ],
      "name": "setCurrentRound",
      "outputs": [],
      "stateMutability": "nonpayable",
      "type": "function"
    },
    {
      "inputs": [
        {
          "internalType": "address",
          "name": "_validator",
          "type": "address"
        }
      ],
      "name": "setValidator",
      "outputs": [],
      "stateMutability": "nonpayable",
      "type": "function"
    },
    {
      "inputs": [
        {
          "internalType": "address",
          "name": "",
          "type": "address"
        }
      ],
      "name": "status",
      "outputs": [
        {
          "internalType": "uint256",
          "name": "",
          "type": "uint256"
        }
      ],
      "stateMutability": "view",
      "type": "function"
    },
    {
      "inputs": [
        {
          "internalType": "address",
          "name": "newOwner",
          "type": "address"
        }
      ],
      "name": "transferOwnership",
      "outputs": [],
      "stateMutability": "nonpayable",
      "type": "function"
    },
    {
      "inputs": [],
      "name": "treasury",
      "outputs": [
        {
          "internalType": "address",
          "name": "",
          "type": "address"
        }
      ],
      "stateMutability": "view",
      "type": "function"
    },
    {
      "inputs": [],
      "name": "unpause",
      "outputs": [],
      "stateMutability": "nonpayable",
      "type": "function"
    },
    {
      "inputs": [],
      "name": "validator",
      "outputs": [
        {
          "internalType": "address",
          "name": "",
          "type": "address"
        }
      ],
      "stateMutability": "view",
      "type": "function"
    }
  ],
  "bytecode": "0x608060405234801561001057600080fd5b506117c5806100206000396000f3fe608060405234801561001057600080fd5b50600436106101005760003560e01c8063645b8b1b116100975780638da5cb5b116100665780638da5cb5b1461020f578063a20bd97414610220578063c0c53b8b14610233578063f2fde38b1461024657600080fd5b8063645b8b1b146101d6578063715018a6146101f65780638456cb59146101fe5780638a19c8bc1461020657600080fd5b80633f4ba83a116100d35780633f4ba83a146101925780634f9c3eed1461019a5780635c975abb146101ad57806361d027b3146101c357600080fd5b806304622c2e146101055780631327d3d81461013f5780633a5381b5146101545780633bc91e281461017f575b600080fd5b61012c7fa35f47cfb1c3408f36a53c975a0693fc5201f770fe949c6e707a446691cab4db81565b6040519081526020015b60405180910390f35b61015261014d3660046114e8565b610259565b005b609954610167906001600160a01b031681565b6040516001600160a01b039091168152602001610136565b61015261018d366004611503565b6102e7565b610152610346565b6101526101a8366004611532565b6103aa565b60655460ff166040519015158152602001610136565b609854610167906001600160a01b031681565b61012c6101e43660046114e8565b609b6020526000908152604090205481565b610152610582565b6101526105e6565b61012c609a5481565b6033546001600160a01b0316610167565b609754610167906001600160a01b031681565b610152610241366004611624565b610648565b6101526102543660046114e8565b6107a8565b6033546001600160a01b031633146102b85760405162461bcd60e51b815260206004820181905260248201527f4f776e61626c653a2063616c6c6572206973206e6f7420746865206f776e657260448201526064015b60405180910390fd5b6099805473ffffffffffffffffffffffffffffffffffffffff19166001600160a01b0392909216919091179055565b6033546001600160a01b031633146103415760405162461bcd60e51b815260206004820181905260248201527f4f776e61626c653a2063616c6c6572206973206e6f7420746865206f776e657260448201526064016102af565b609a55565b6033546001600160a01b031633146103a05760405162461bcd60e51b815260206004820181905260248201527f4f776e61626c653a2063616c6c6572206973206e6f7420746865206f776e657260448201526064016102af565b6103a861088a565b565b60655460ff16156103f05760405162461bcd60e51b815260206004820152601060248201526f14185d5cd8589b194e881c185d5cd95960821b60448201526064016102af565b6001600160a01b0387163314610419576040516348f5c3ed60e01b815260040160405180910390fd5b8460000361043a57604051631f2a200560e01b815260040160405180910390fd5b85609a5414158061044b5750609a54155b15610469576040516328ad4a9560e21b815260040160405180910390fd5b336000908152609b602052604081205490600261048760018a61167d565b83901c6104949190611694565b9050806001036104b757604051630c0e5cf760e21b815260040160405180910390fd5b6104c260018961167d565b6104d0906001901b836116b6565b336000908152609b6020526040902081905591506104f389898989898989610926565b610510576040516370ef913d60e11b815260040160405180910390fd5b61052e336098546097546001600160a01b039081169291168a610a36565b336001600160a01b03167fe8b77bc4d47f8b3b83bc7243ccbacecabe41da68e4049c4cdcca8688746602cd898989888860405161056f959493929190611726565b60405180910390a2505050505050505050565b6033546001600160a01b031633146105dc5760405162461bcd60e51b815260206004820181905260248201527f4f776e61626c653a2063616c6c6572206973206e6f7420746865206f776e657260448201526064016102af565b6103a86000610aa5565b6033546001600160a01b031633146106405760405162461bcd60e51b815260206004820181905260248201527f4f776e61626c653a2063616c6c6572206973206e6f7420746865206f776e657260448201526064016102af565b6103a8610b04565b60006106546001610b7f565b9050801561066c576000805461ff0019166101001790555b610674610c9a565b61067c610d05565b610684610d78565b6001600160a01b03841615806106a157506001600160a01b038316155b156106bf5760405163d92e233d60e01b815260040160405180910390fd5b609780546001600160a01b0380871673ffffffffffffffffffffffffffffffffffffffff1992831617909255609880548684169083161790556099805492851692909116919091179055610711610b04565b604080516001600160a01b038681168252858116602083015284168183015290517fa4f799b519ec4341ebb3e3907b6631ced61cd3f7b5d5338cffb795e949b888009181900360600190a180156107a2576000805461ff0019169055604051600181527f7f26b83ff96e1f2b6a682f133852f6798a09c465da95921460cefb38474024989060200160405180910390a15b50505050565b6033546001600160a01b031633146108025760405162461bcd60e51b815260206004820181905260248201527f4f776e61626c653a2063616c6c6572206973206e6f7420746865206f776e657260448201526064016102af565b6001600160a01b03811661087e5760405162461bcd60e51b815260206004820152602660248201527f4f776e61626c653a206e6577206f776e657220697320746865207a65726f206160448201527f646472657373000000000000000000000000000000000000000000000000000060648201526084016102af565b61088781610aa5565b50565b60655460ff166108dc5760405162461bcd60e51b815260206004820152601460248201527f5061757361626c653a206e6f742070617573656400000000000000000000000060448201526064016102af565b6065805460ff191690557f5db9ee0a495bf2e6ff9c91a7834c1ba4fdd244a5e8aa4e537bd38aeae4b073aa335b6040516001600160a01b03909116815260200160405180910390a1565b60408051606089901b6bffffffffffffffffffffffff19166020808301919091527fa35f47cfb1c3408f36a53c975a0693fc5201f770fe949c6e707a446691cab4db603483015260548201899052607482018890526094820187905260b4820186905260d48083018690528351808403909101815260f4830184528051908201207f19457468657265756d205369676e6564204d6573736167653a0a3332000000006101148401526101308084018290528451808503909101815261015090930190935281519101206000919060006109ff8286610deb565b6099549091506001600160a01b03808316911614610a235760009350505050610a2b565b600193505050505b979650505050505050565b604080516001600160a01b0385811660248301528416604482015260648082018490528251808303909101815260849091019091526020810180517bffffffffffffffffffffffffffffffffffffffffffffffffffffffff166323b872dd60e01b1790526107a2908590610e0f565b603380546001600160a01b0383811673ffffffffffffffffffffffffffffffffffffffff19831681179093556040519116919082907f8be0079c531659141344cd1fd0a4f28419497f9722a3daafe3b4186f6b6457e090600090a35050565b60655460ff1615610b4a5760405162461bcd60e51b815260206004820152601060248201526f14185d5cd8589b194e881c185d5cd95960821b60448201526064016102af565b6065805460ff191660011790557f62e78cea01bee320cd4e420270b5ea74000d11b0c9f74754ebdbfc544b05a2586109093390565b60008054610100900460ff1615610c0d578160ff166001148015610ba25750303b155b610c055760405162461bcd60e51b815260206004820152602e60248201527f496e697469616c697a61626c653a20636f6e747261637420697320616c72656160448201526d191e481a5b9a5d1a585b1a5e995960921b60648201526084016102af565b506000919050565b60005460ff808416911610610c7b5760405162461bcd60e51b815260206004820152602e60248201527f496e697469616c697a61626c653a20636f6e747261637420697320616c72656160448201526d191e481a5b9a5d1a585b1a5e995960921b60648201526084016102af565b506000805460ff191660ff92909216919091179055600190565b919050565b600054610100900460ff166103a85760405162461bcd60e51b815260206004820152602b60248201527f496e697469616c697a61626c653a20636f6e7472616374206973206e6f74206960448201526a6e697469616c697a696e6760a81b60648201526084016102af565b600054610100900460ff16610d705760405162461bcd60e51b815260206004820152602b60248201527f496e697469616c697a61626c653a20636f6e7472616374206973206e6f74206960448201526a6e697469616c697a696e6760a81b60648201526084016102af565b6103a8610ef9565b600054610100900460ff16610de35760405162461bcd60e51b815260206004820152602b60248201527f496e697469616c697a61626c653a20636f6e7472616374206973206e6f74206960448201526a6e697469616c697a696e6760a81b60648201526084016102af565b6103a8610f6d565b6000806000610dfa8585610fe4565b91509150610e0781611052565b509392505050565b6000610e64826040518060400160405280602081526020017f5361666545524332303a206c6f772d6c6576656c2063616c6c206661696c6564815250856001600160a01b03166112089092919063ffffffff16565b805190915015610ef45780806020019051810190610e829190611751565b610ef45760405162461bcd60e51b815260206004820152602a60248201527f5361666545524332303a204552433230206f7065726174696f6e20646964206e60448201527f6f7420737563636565640000000000000000000000000000000000000000000060648201526084016102af565b505050565b600054610100900460ff16610f645760405162461bcd60e51b815260206004820152602b60248201527f496e697469616c697a61626c653a20636f6e7472616374206973206e6f74206960448201526a6e697469616c697a696e6760a81b60648201526084016102af565b6103a833610aa5565b600054610100900460ff16610fd85760405162461bcd60e51b815260206004820152602b60248201527f496e697469616c697a61626c653a20636f6e7472616374206973206e6f74206960448201526a6e697469616c697a696e6760a81b60648201526084016102af565b6065805460ff19169055565b600080825160410361101a5760208301516040840151606085015160001a61100e87828585611221565b9450945050505061104b565b8251604003611043576020830151604084015161103886838361130e565b93509350505061104b565b506000905060025b9250929050565b600081600481111561106657611066611773565b0361106e5750565b600181600481111561108257611082611773565b036110cf5760405162461bcd60e51b815260206004820152601860248201527f45434453413a20696e76616c6964207369676e6174757265000000000000000060448201526064016102af565b60028160048111156110e3576110e3611773565b036111305760405162461bcd60e51b815260206004820152601f60248201527f45434453413a20696e76616c6964207369676e6174757265206c656e6774680060448201526064016102af565b600381600481111561114457611144611773565b0361119c5760405162461bcd60e51b815260206004820152602260248201527f45434453413a20696e76616c6964207369676e6174757265202773272076616c604482015261756560f01b60648201526084016102af565b60048160048111156111b0576111b0611773565b036108875760405162461bcd60e51b815260206004820152602260248201527f45434453413a20696e76616c6964207369676e6174757265202776272076616c604482015261756560f01b60648201526084016102af565b60606112178484600085611360565b90505b9392505050565b6000807f7fffffffffffffffffffffffffffffff5d576e7357a4501ddfe92f46681b20a08311156112585750600090506003611305565b8460ff16601b1415801561127057508460ff16601c14155b156112815750600090506004611305565b6040805160008082526020820180845289905260ff881692820192909252606081018690526080810185905260019060a0016020604051602081039080840390855afa1580156112d5573d6000803e3d6000fd5b5050604051601f1901519150506001600160a01b0381166112fe57600060019250925050611305565b9150600090505b94509492505050565b6000807f7fffffffffffffffffffffffffffffffffffffffffffffffffffffffffffffff83168161134460ff86901c601b6116b6565b905061135287828885611221565b935093505050935093915050565b6060824710156113d85760405162461bcd60e51b815260206004820152602660248201527f416464726573733a20696e73756666696369656e742062616c616e636520666f60448201527f722063616c6c000000000000000000000000000000000000000000000000000060648201526084016102af565b6001600160a01b0385163b61142f5760405162461bcd60e51b815260206004820152601d60248201527f416464726573733a2063616c6c20746f206e6f6e2d636f6e747261637400000060448201526064016102af565b600080866001600160a01b0316858760405161144b9190611789565b60006040518083038185875af1925050503d8060008114611488576040519150601f19603f3d011682016040523d82523d6000602084013e61148d565b606091505b5091509150610a2b828286606083156114a757508161121a565b8251156114b75782518084602001fd5b8160405162461bcd60e51b81526004016102af91906117a5565b80356001600160a01b0381168114610c9557600080fd5b6000602082840312156114fa57600080fd5b61121a826114d1565b60006020828403121561151557600080fd5b5035919050565b634e487b7160e01b600052604160045260246000fd5b600080600080600080600060e0888a03121561154d57600080fd5b611556886114d1565b96506020880135955060408801359450606088013593506080880135925060a0880135915060c088013567ffffffffffffffff8082111561159657600080fd5b818a0191508a601f8301126115aa57600080fd5b8135818111156115bc576115bc61151c565b604051601f8201601f19908116603f011681019083821181831017156115e4576115e461151c565b816040528281528d60208487010111156115fd57600080fd5b82602086016020830137600060208483010152809550505050505092959891949750929550565b60008060006060848603121561163957600080fd5b611642846114d1565b9250611650602085016114d1565b915061165e604085016114d1565b90509250925092565b634e487b7160e01b600052601160045260246000fd5b60008282101561168f5761168f611667565b500390565b6000826116b157634e487b7160e01b600052601260045260246000fd5b500690565b600082198211156116c9576116c9611667565b500190565b60005b838110156116e95781810151838201526020016116d1565b838111156107a25750506000910152565b600081518084526117128160208601602086016116ce565b601f01601f19169290920160200192915050565b85815284602082015283604082015282606082015260a060808201526000610a2b60a08301846116fa565b60006020828403121561176357600080fd5b8151801515811461121a57600080fd5b634e487b7160e01b600052602160045260246000fd5b6000825161179b8184602087016116ce565b9190910192915050565b60208152600061121a60208301846116fa56fea164736f6c634300080d000a",
  "linkReferences": {},
  "deployedLinkReferences": {}
}