{
  "_format": "hh-sol-artifact-1",
  "contractName": "LLCMPWRMigration",
  "sourceName": "contracts/mpwr-lp-migration/llc-mpwr-migration.sol",
  "abi": [
    {
      "inputs": [],
      "name": "InvalidAmount",
      "type": "error"
    },
    {
      "inputs": [],
      "name": "InvalidOwner",
      "type": "error"
    },
    {
      "inputs": [],
      "name": "InvalidTransfer",
      "type": "error"
    },
    {
      "inputs": [],
      "name": "Locked",
      "type": "error"
    },
    {
      "inputs": [],
      "name": "ZeroAddress",
      "type": "error"
    },
    {
      "anonymous": false,
      "inputs": [
        {
          "indexed": false,
          "internalType": "uint8",
          "name": "version",
          "type": "uint8"
        }
      ],
      "name": "Initialized",
      "type": "event"
    },
    {
      "anonymous": false,
      "inputs": [
        {
          "indexed": true,
          "internalType": "address",
          "name": "previousOwner",
          "type": "address"
        },
        {
          "indexed": true,
          "internalType": "address",
          "name": "newOwner",
          "type": "address"
        }
      ],
      "name": "OwnershipTransferred",
      "type": "event"
    },
    {
      "anonymous": false,
      "inputs": [
        {
          "indexed": false,
          "internalType": "address",
          "name": "account",
          "type": "address"
        }
      ],
      "name": "Paused",
      "type": "event"
    },
    {
      "anonymous": false,
      "inputs": [
        {
          "indexed": true,
          "internalType": "address",
          "name": "sender",
          "type": "address"
        },
        {
          "indexed": false,
          "internalType": "uint256",
          "name": "amount",
          "type": "uint256"
        }
      ],
      "name": "Receive",
      "type": "event"
    },
    {
      "anonymous": false,
      "inputs": [
        {
          "indexed": true,
          "internalType": "address",
          "name": "owner",
          "type": "address"
        },
        {
          "indexed": false,
          "internalType": "uint256",
          "name": "depositId",
          "type": "uint256"
        },
        {
          "indexed": false,
          "internalType": "uint256",
          "name": "tokenId",
          "type": "uint256"
        },
        {
          "indexed": false,
          "internalType": "uint256",
          "name": "llcId",
          "type": "uint256"
        },
        {
          "indexed": false,
          "internalType": "uint256",
          "name": "reward",
          "type": "uint256"
        }
      ],
      "name": "StakeLP",
      "type": "event"
    },
    {
      "anonymous": false,
      "inputs": [
        {
          "indexed": false,
          "internalType": "address",
          "name": "account",
          "type": "address"
        }
      ],
      "name": "Unpaused",
      "type": "event"
    },
    {
      "anonymous": false,
      "inputs": [
        {
          "indexed": true,
          "internalType": "address",
          "name": "owner",
          "type": "address"
        },
        {
          "indexed": false,
          "internalType": "uint256",
          "name": "depositId",
          "type": "uint256"
        },
        {
          "indexed": false,
          "internalType": "uint256",
          "name": "tokenId",
          "type": "uint256"
        },
        {
          "indexed": false,
          "internalType": "uint256",
          "name": "llcId",
          "type": "uint256"
        },
        {
          "indexed": false,
          "internalType": "uint256",
          "name": "reward",
          "type": "uint256"
        }
      ],
      "name": "Withdraw",
      "type": "event"
    },
    {
      "inputs": [],
      "name": "balancesOf",
      "outputs": [
        {
          "internalType": "uint256",
          "name": "ethAmount",
          "type": "uint256"
        },
        {
          "internalType": "uint256",
          "name": "mpwrAmount",
          "type": "uint256"
        },
        {
          "internalType": "uint256",
          "name": "wethAmount",
          "type": "uint256"
        }
      ],
      "stateMutability": "view",
      "type": "function"
    },
    {
      "inputs": [
        {
          "internalType": "uint256",
          "name": "llcId",
          "type": "uint256"
        }
      ],
      "name": "deposit",
      "outputs": [],
      "stateMutability": "payable",
      "type": "function"
    },
    {
      "inputs": [
        {
          "internalType": "address",
          "name": "_owner",
          "type": "address"
        }
      ],
      "name": "depositCountOfOwner",
      "outputs": [
        {
          "internalType": "uint256",
          "name": "count",
          "type": "uint256"
        }
      ],
      "stateMutability": "view",
      "type": "function"
    },
    {
      "inputs": [
        {
          "internalType": "uint256",
          "name": "",
          "type": "uint256"
        }
      ],
      "name": "deposits",
      "outputs": [
        {
          "internalType": "address",
          "name": "owner",
          "type": "address"
        },
        {
          "internalType": "uint256",
          "name": "id",
          "type": "uint256"
        },
        {
          "internalType": "uint256",
          "name": "ethAmount",
          "type": "uint256"
        },
        {
          "internalType": "uint256",
          "name": "mpwrAmount",
          "type": "uint256"
        },
        {
          "internalType": "uint256",
          "name": "reward",
          "type": "uint256"
        },
        {
          "internalType": "uint256",
          "name": "llcId",
          "type": "uint256"
        },
        {
          "internalType": "uint256",
          "name": "timestamp",
          "type": "uint256"
        }
      ],
      "stateMutability": "view",
      "type": "function"
    },
    {
      "inputs": [
        {
          "internalType": "address",
          "name": "_owner",
          "type": "address"
        }
      ],
      "name": "depositsOfOwner",
      "outputs": [
        {
          "internalType": "uint256[]",
          "name": "",
          "type": "uint256[]"
        }
      ],
      "stateMutability": "view",
      "type": "function"
    },
    {
      "inputs": [
        {
          "internalType": "address",
          "name": "_wethToken",
          "type": "address"
        },
        {
          "internalType": "address",
          "name": "_mpwrToken",
          "type": "address"
        },
        {
          "internalType": "address",
          "name": "_llcToken",
          "type": "address"
        },
        {
          "internalType": "address",
          "name": "_quoter",
          "type": "address"
        },
        {
          "internalType": "address",
          "name": "_position",
          "type": "address"
        }
      ],
      "name": "initialize",
      "outputs": [],
      "stateMutability": "nonpayable",
      "type": "function"
    },
    {
      "inputs": [],
      "name": "llcToken",
      "outputs": [
        {
          "internalType": "contract IERC721Upgradeable",
          "name": "",
          "type": "address"
        }
      ],
      "stateMutability": "view",
      "type": "function"
    },
    {
      "inputs": [],
      "name": "mpwrToken",
      "outputs": [
        {
          "internalType": "contract IERC20Upgradeable",
          "name": "",
          "type": "address"
        }
      ],
      "stateMutability": "view",
      "type": "function"
    },
    {
      "inputs": [],
      "name": "nonfungiblePositionManager",
      "outputs": [
        {
          "internalType": "contract INonfungiblePositionManager",
          "name": "",
          "type": "address"
        }
      ],
      "stateMutability": "view",
      "type": "function"
    },
    {
      "inputs": [],
      "name": "owner",
      "outputs": [
        {
          "internalType": "address",
          "name": "",
          "type": "address"
        }
      ],
      "stateMutability": "view",
      "type": "function"
    },
    {
      "inputs": [],
      "name": "pause",
      "outputs": [],
      "stateMutability": "nonpayable",
      "type": "function"
    },
    {
      "inputs": [],
      "name": "paused",
      "outputs": [
        {
          "internalType": "bool",
          "name": "",
          "type": "bool"
        }
      ],
      "stateMutability": "view",
      "type": "function"
    },
    {
      "inputs": [],
      "name": "renounceOwnership",
      "outputs": [],
      "stateMutability": "nonpayable",
      "type": "function"
    },
    {
      "inputs": [
        {
          "internalType": "uint256",
          "name": "depositId",
          "type": "uint256"
        }
      ],
      "name": "rewardOf",
      "outputs": [
        {
          "internalType": "uint256",
          "name": "reward",
          "type": "uint256"
        }
      ],
      "stateMutability": "view",
      "type": "function"
    },
    {
      "inputs": [
        {
          "internalType": "int24",
          "name": "lower",
          "type": "int24"
        },
        {
          "internalType": "int24",
          "name": "upper",
          "type": "int24"
        }
      ],
      "name": "setTicks",
      "outputs": [],
      "stateMutability": "nonpayable",
      "type": "function"
    },
    {
      "inputs": [],
      "name": "totalStaked",
      "outputs": [
        {
          "internalType": "uint256",
          "name": "",
          "type": "uint256"
        }
      ],
      "stateMutability": "view",
      "type": "function"
    },
    {
      "inputs": [
        {
          "internalType": "address",
          "name": "newOwner",
          "type": "address"
        }
      ],
      "name": "transferOwnership",
      "outputs": [],
      "stateMutability": "nonpayable",
      "type": "function"
    },
    {
      "inputs": [],
      "name": "unpause",
      "outputs": [],
      "stateMutability": "nonpayable",
      "type": "function"
    },
    {
      "inputs": [],
      "name": "wethToken",
      "outputs": [
        {
          "internalType": "contract IWETH",
          "name": "",
          "type": "address"
        }
      ],
      "stateMutability": "view",
      "type": "function"
    },
    {
      "inputs": [
        {
          "internalType": "uint256",
          "name": "depositId",
          "type": "uint256"
        }
      ],
      "name": "withdraw",
      "outputs": [],
      "stateMutability": "nonpayable",
      "type": "function"
    },
    {
      "inputs": [
        {
          "internalType": "address",
          "name": "to",
          "type": "address"
        }
      ],
      "name": "withdrawETH",
      "outputs": [],
      "stateMutability": "nonpayable",
      "type": "function"
    },
    {
      "inputs": [
        {
          "internalType": "address",
          "name": "to",
          "type": "address"
        }
      ],
      "name": "withdrawMPWR",
      "outputs": [],
      "stateMutability": "nonpayable",
      "type": "function"
    },
    {
      "inputs": [
        {
          "internalType": "address",
          "name": "to",
          "type": "address"
        }
      ],
      "name": "withdrawWETH",
      "outputs": [],
      "stateMutability": "nonpayable",
      "type": "function"
    },
    {
      "stateMutability": "payable",
      "type": "receive"
    }
  ],
  "bytecode": "0x608060405234801561001057600080fd5b50612177806100206000396000f3fe6080604052600436106101845760003560e01c806388428845116100d6578063b6b55f251161007f578063daa3770c11610059578063daa3770c146104d9578063e73b4ccb14610509578063f2fde38b1461052957600080fd5b8063b6b55f2514610486578063c5bcfbf314610499578063d0167120146104b957600080fd5b8063a20bd974116100b0578063a20bd974146103a5578063b02c43d0146103c5578063b44a27221461046657600080fd5b8063884288451461033a5780638c8423fb1461035a5780638da5cb5b1461038757600080fd5b80634b57b0be11610138578063715018a611610112578063715018a6146102ec578063817b1cd2146103015780638456cb591461032557600080fd5b80634b57b0be146102715780635c975abb146102a9578063690d8320146102cc57600080fd5b80631efda4ce116101695780631efda4ce1461021c5780632e1a7d4d1461023c5780633f4ba83a1461025c57600080fd5b80631459457a146101c557806319d37e4a146101e757600080fd5b366101c05760405134815233907fd6717f327e0cb88b4a97a7f67a453e9258252c34937ccbdd86de7cb840e7def39060200160405180910390a2005b600080fd5b3480156101d157600080fd5b506101e56101e0366004611d93565b610549565b005b3480156101f357600080fd5b506101fc61079b565b604080519384526020840192909252908201526060015b60405180910390f35b34801561022857600080fd5b506101e5610237366004611e1b565b610880565b34801561024857600080fd5b506101e5610257366004611e4e565b6108da565b34801561026857600080fd5b506101e5610be9565b34801561027d57600080fd5b5060ca54610291906001600160a01b031681565b6040516001600160a01b039091168152602001610213565b3480156102b557600080fd5b5060655460ff166040519015158152602001610213565b3480156102d857600080fd5b506101e56102e7366004611e67565b610bfb565b3480156102f857600080fd5b506101e5610c3c565b34801561030d57600080fd5b5061031760cd5481565b604051908152602001610213565b34801561033157600080fd5b506101e5610c4e565b34801561034657600080fd5b506101e5610355366004611e67565b610c5e565b34801561036657600080fd5b5061037a610375366004611e67565b610ced565b6040516102139190611e84565b34801561039357600080fd5b506033546001600160a01b0316610291565b3480156103b157600080fd5b5060c954610291906001600160a01b031681565b3480156103d157600080fd5b506104276103e0366004611e4e565b60d06020526000908152604090208054600182015460028301546003840154600485015460058601546006909601546001600160a01b039095169593949293919290919087565b604080516001600160a01b0390981688526020880196909652948601939093526060850191909152608084015260a083015260c082015260e001610213565b34801561047257600080fd5b5060ce54610291906001600160a01b031681565b6101e5610494366004611e4e565b610db8565b3480156104a557600080fd5b506101e56104b4366004611e67565b611197565b3480156104c557600080fd5b5060cb54610291906001600160a01b031681565b3480156104e557600080fd5b506103176104f4366004611e4e565b600090815260d0602052604090206004015490565b34801561051557600080fd5b50610317610524366004611e67565b611284565b34801561053557600080fd5b506101e5610544366004611e67565b6112d9565b600054610100900460ff16158080156105695750600054600160ff909116105b806105835750303b158015610583575060005460ff166001145b6105fa5760405162461bcd60e51b815260206004820152602e60248201527f496e697469616c697a61626c653a20636f6e747261637420697320616c72656160448201527f647920696e697469616c697a656400000000000000000000000000000000000060648201526084015b60405180910390fd5b6000805460ff19166001179055801561061d576000805461ff0019166101001790555b610625611369565b61062d6113d4565b610635611447565b61063d6114ba565b6001600160a01b038516158061065a57506001600160a01b038616155b8061066c57506001600160a01b038416155b1561068a5760405163d92e233d60e01b815260040160405180910390fd5b60ca805473ffffffffffffffffffffffffffffffffffffffff199081166001600160a01b038981169190911790925560c98054821688841617905560cb8054821687841617905560cc805490911685831617905560ce80549184167fffffffffffffffffff00000000000000000000000000000000000000000000009092169190911776fec14000000000000000000000000000000000000000001762ffffff60b81b191679ffa60000000000000000000000000000000000000000000000001790558015610793576000805461ff0019169055604051600181527f7f26b83ff96e1f2b6a682f133852f6798a09c465da95921460cefb38474024989060200160405180910390a15b505050505050565b60c9546040516370a0823160e01b8152306004820152479160009182916001600160a01b0316906370a0823190602401602060405180830381865afa1580156107e8573d6000803e3d6000fd5b505050506040513d601f19601f8201168201806040525081019061080c9190611ec8565b60ca546040516370a0823160e01b81523060048201529193506001600160a01b0316906370a0823190602401602060405180830381865afa158015610855573d6000803e3d6000fd5b505050506040513d601f19601f820116820180604052508101906108799190611ec8565b9050909192565b61088861152d565b60ce80547fffffffffffff000000000000ffffffffffffffffffffffffffffffffffffffff16600160a01b62ffffff9485160262ffffff60b81b191617600160b81b9290931691909102919091179055565b6108e2611587565b6002609754036109345760405162461bcd60e51b815260206004820152601f60248201527f5265656e7472616e637947756172643a207265656e7472616e742063616c6c0060448201526064016105f1565b60026097819055600082815260d06020908152604091829020825160e08101845281546001600160a01b031680825260018301549382019390935293810154928401929092526003820154606084015260048201546080840152600582015460a084015260069091015460c083015233146109c2576040516349e27cff60e01b815260040160405180910390fd5b4261012c8260c001516109d59190611ef7565b11156109f4576040516303cb96db60e21b815260040160405180910390fd5b600082815260d06020526040808220600401549051909190339083908381818185875af1925050503d8060008114610a48576040519150601f19603f3d011682016040523d82523d6000602084013e610a4d565b606091505b5050905080610a6f57604051632f35253160e01b815260040160405180910390fd5b60cb546001600160a01b03166342842e0e303360a08701516040516001600160e01b031960e086901b1681526001600160a01b0393841660048201529290911660248301526044820152606401600060405180830381600087803b158015610ad657600080fd5b505af1158015610aea573d6000803e3d6000fd5b505060ce546001600160a01b031691506323b872dd9050303360208701516040516001600160e01b031960e086901b1681526001600160a01b0393841660048201529290911660248301526044820152606401600060405180830381600087803b158015610b5757600080fd5b505af1158015610b6b573d6000803e3d6000fd5b50505050610b763390565b6001600160a01b03167fe08737ac48a1dab4b1a46c7dc9398bd5bfc6d7ad6fabb7cd8caa254de14def358585602001518660a001518760800151604051610bd6949392919093845260208401929092526040830152606082015260800190565b60405180910390a2505060016097555050565b610bf161152d565b610bf96115da565b565b610c0361152d565b6040516001600160a01b038216904780156108fc02916000818181858888f19350505050158015610c38573d6000803e3d6000fd5b5050565b610c4461152d565b610bf9600061162c565b610c5661152d565b610bf961168b565b610c6661152d565b60c9546040516370a0823160e01b81523060048201526000916001600160a01b0316906370a0823190602401602060405180830381865afa158015610caf573d6000803e3d6000fd5b505050506040513d601f19601f82011682018060405250810190610cd39190611ec8565b60c954909150610c38906001600160a01b031683836116c8565b6060600080610cfb84611284565b905060008167ffffffffffffffff811115610d1857610d18611f0f565b604051908082528060200260200182016040528015610d41578160200160208202803683370190505b50905060005b60cd54811015610daf57600081815260d060205260409020546001600160a01b03808816911603610d9d57808285610d7e81611f25565b965081518110610d9057610d90611f3e565b6020026020010181815250505b80610da781611f25565b915050610d47565b50949350505050565b610dc0611587565b600260975403610e125760405162461bcd60e51b815260206004820152601f60248201527f5265656e7472616e637947756172643a207265656e7472616e742063616c6c0060448201526064016105f1565b60026097553360cb546040516331a9108f60e11b8152600481018490526001600160a01b039283169290911690636352211e90602401602060405180830381865afa158015610e65573d6000803e3d6000fd5b505050506040513d601f19601f82011682018060405250810190610e899190611f54565b6001600160a01b031614610eb0576040516349e27cff60e01b815260040160405180910390fd5b66038d7ea4c68000341015610ed85760405163162908e360e11b815260040160405180910390fd5b60ca60009054906101000a90046001600160a01b03166001600160a01b031663d0e30db0346040518263ffffffff1660e01b81526004016000604051808303818588803b158015610f2857600080fd5b505af1158015610f3c573d6000803e3d6000fd5b505060cb5460408051632142170760e11b81523360048201523060248201526044810187905290516001600160a01b0390921694506342842e0e9350606480820193506000929182900301818387803b158015610f9857600080fd5b505af1158015610fac573d6000803e3d6000fd5b505060cc5460ca5460c95460405163f7729d4360e01b81526001600160a01b0392831660048201529082166024820152610bb8604482015234606482015260006084820181905294509116915063f7729d439060a4016020604051808303816000875af1158015611021573d6000803e3d6000fd5b505050506040513d601f19601f820116820180604052508101906110459190611ec8565b905060008060006110563485611734565b93509350509250600061106834611925565b60cd8054919250600091908261107d83611f25565b9190505590506040518060e001604052806110953390565b6001600160a01b039081168252602080830189905260408084018990526060808501899052608080860189905260a08087018f90524260c097880152600089815260d086528490208851815473ffffffffffffffffffffffffffffffffffffffff19169716969096178655938701516001860155918601516002850155850151600384015584015160048301558301516005820155910151600690910155336040805183815260208101889052908101899052606081018490526001600160a01b0391909116907fd34b0582522ffeacd5168bdeeab0b3c4ae24bcd2e519690a4d3c4f9a66a677989060800160405180910390a2505060016097555050505050565b61119f61152d565b60ca546040516370a0823160e01b81523060048201526001600160a01b039091169063a9059cbb90839083906370a0823190602401602060405180830381865afa1580156111f1573d6000803e3d6000fd5b505050506040513d601f19601f820116820180604052508101906112159190611ec8565b6040516001600160e01b031960e085901b1681526001600160a01b03909216600483015260248201526044016020604051808303816000875af1158015611260573d6000803e3d6000fd5b505050506040513d601f19601f82011682018060405250810190610c389190611f71565b6000805b60cd548110156112d357600081815260d060205260409020546001600160a01b038085169116036112c157816112bd81611f25565b9250505b806112cb81611f25565b915050611288565b50919050565b6112e161152d565b6001600160a01b03811661135d5760405162461bcd60e51b815260206004820152602660248201527f4f776e61626c653a206e6577206f776e657220697320746865207a65726f206160448201527f646472657373000000000000000000000000000000000000000000000000000060648201526084016105f1565b6113668161162c565b50565b600054610100900460ff16610bf95760405162461bcd60e51b815260206004820152602b60248201527f496e697469616c697a61626c653a20636f6e7472616374206973206e6f74206960448201526a6e697469616c697a696e6760a81b60648201526084016105f1565b600054610100900460ff1661143f5760405162461bcd60e51b815260206004820152602b60248201527f496e697469616c697a61626c653a20636f6e7472616374206973206e6f74206960448201526a6e697469616c697a696e6760a81b60648201526084016105f1565b610bf9611950565b600054610100900460ff166114b25760405162461bcd60e51b815260206004820152602b60248201527f496e697469616c697a61626c653a20636f6e7472616374206973206e6f74206960448201526a6e697469616c697a696e6760a81b60648201526084016105f1565b610bf96119c4565b600054610100900460ff166115255760405162461bcd60e51b815260206004820152602b60248201527f496e697469616c697a61626c653a20636f6e7472616374206973206e6f74206960448201526a6e697469616c697a696e6760a81b60648201526084016105f1565b610bf9611a3b565b6033546001600160a01b03163314610bf95760405162461bcd60e51b815260206004820181905260248201527f4f776e61626c653a2063616c6c6572206973206e6f7420746865206f776e657260448201526064016105f1565b60655460ff1615610bf95760405162461bcd60e51b815260206004820152601060248201527f5061757361626c653a207061757365640000000000000000000000000000000060448201526064016105f1565b6115e2611aad565b6065805460ff191690557f5db9ee0a495bf2e6ff9c91a7834c1ba4fdd244a5e8aa4e537bd38aeae4b073aa335b6040516001600160a01b03909116815260200160405180910390a1565b603380546001600160a01b0383811673ffffffffffffffffffffffffffffffffffffffff19831681179093556040519116919082907f8be0079c531659141344cd1fd0a4f28419497f9722a3daafe3b4186f6b6457e090600090a35050565b611693611587565b6065805460ff191660011790557f62e78cea01bee320cd4e420270b5ea74000d11b0c9f74754ebdbfc544b05a25861160f3390565b604080516001600160a01b038416602482015260448082018490528251808303909101815260649091019091526020810180517bffffffffffffffffffffffffffffffffffffffffffffffffffffffff1663a9059cbb60e01b17905261172f908490611aff565b505050565b60ca5460ce5460405163095ea7b360e01b81526001600160a01b03918216600482015260248101859052600092839283928392919091169063095ea7b3906044016020604051808303816000875af1158015611794573d6000803e3d6000fd5b505050506040513d601f19601f820116820180604052508101906117b89190611f71565b5060c95460ce5460405163095ea7b360e01b81526001600160a01b0391821660048201526024810188905291169063095ea7b3906044016020604051808303816000875af115801561180e573d6000803e3d6000fd5b505050506040513d601f19601f820116820180604052508101906118329190611f71565b50604080516101608101825260c9546001600160a01b03908116825260ca5481166020830152610bb88284015260ce54600160a01b8104600290810b6060850152600160b81b8204900b608084015260a0830189905260c083018a9052600060e0840181905261010084015230610120840152426101408401529251634418b22b60e11b8152919216906388316456906118d0908490600401611f93565b6080604051808303816000875af11580156118ef573d6000803e3d6000fd5b505050506040513d601f19601f820116820180604052508101906119139190612057565b929a9199509197509095509350505050565b60006064600f6119368460026120aa565b61194091906120aa565b61194a91906120c9565b92915050565b600054610100900460ff166119bb5760405162461bcd60e51b815260206004820152602b60248201527f496e697469616c697a61626c653a20636f6e7472616374206973206e6f74206960448201526a6e697469616c697a696e6760a81b60648201526084016105f1565b610bf93361162c565b600054610100900460ff16611a2f5760405162461bcd60e51b815260206004820152602b60248201527f496e697469616c697a61626c653a20636f6e7472616374206973206e6f74206960448201526a6e697469616c697a696e6760a81b60648201526084016105f1565b6065805460ff19169055565b600054610100900460ff16611aa65760405162461bcd60e51b815260206004820152602b60248201527f496e697469616c697a61626c653a20636f6e7472616374206973206e6f74206960448201526a6e697469616c697a696e6760a81b60648201526084016105f1565b6001609755565b60655460ff16610bf95760405162461bcd60e51b815260206004820152601460248201527f5061757361626c653a206e6f742070617573656400000000000000000000000060448201526064016105f1565b6000611b54826040518060400160405280602081526020017f5361666545524332303a206c6f772d6c6576656c2063616c6c206661696c6564815250856001600160a01b0316611be49092919063ffffffff16565b80519091501561172f5780806020019051810190611b729190611f71565b61172f5760405162461bcd60e51b815260206004820152602a60248201527f5361666545524332303a204552433230206f7065726174696f6e20646964206e60448201527f6f7420737563636565640000000000000000000000000000000000000000000060648201526084016105f1565b6060611bf38484600085611bfd565b90505b9392505050565b606082471015611c755760405162461bcd60e51b815260206004820152602660248201527f416464726573733a20696e73756666696369656e742062616c616e636520666f60448201527f722063616c6c000000000000000000000000000000000000000000000000000060648201526084016105f1565b6001600160a01b0385163b611ccc5760405162461bcd60e51b815260206004820152601d60248201527f416464726573733a2063616c6c20746f206e6f6e2d636f6e747261637400000060448201526064016105f1565b600080866001600160a01b03168587604051611ce8919061211b565b60006040518083038185875af1925050503d8060008114611d25576040519150601f19603f3d011682016040523d82523d6000602084013e611d2a565b606091505b5091509150611d3a828286611d45565b979650505050505050565b60608315611d54575081611bf6565b825115611d645782518084602001fd5b8160405162461bcd60e51b81526004016105f19190612137565b6001600160a01b038116811461136657600080fd5b600080600080600060a08688031215611dab57600080fd5b8535611db681611d7e565b94506020860135611dc681611d7e565b93506040860135611dd681611d7e565b92506060860135611de681611d7e565b91506080860135611df681611d7e565b809150509295509295909350565b8035600281900b8114611e1657600080fd5b919050565b60008060408385031215611e2e57600080fd5b611e3783611e04565b9150611e4560208401611e04565b90509250929050565b600060208284031215611e6057600080fd5b5035919050565b600060208284031215611e7957600080fd5b8135611bf681611d7e565b6020808252825182820181905260009190848201906040850190845b81811015611ebc57835183529284019291840191600101611ea0565b50909695505050505050565b600060208284031215611eda57600080fd5b5051919050565b634e487b7160e01b600052601160045260246000fd5b60008219821115611f0a57611f0a611ee1565b500190565b634e487b7160e01b600052604160045260246000fd5b600060018201611f3757611f37611ee1565b5060010190565b634e487b7160e01b600052603260045260246000fd5b600060208284031215611f6657600080fd5b8151611bf681611d7e565b600060208284031215611f8357600080fd5b81518015158114611bf657600080fd5b81516001600160a01b0316815261016081016020830151611fbf60208401826001600160a01b03169052565b506040830151611fd6604084018262ffffff169052565b506060830151611feb606084018260020b9052565b506080830151612000608084018260020b9052565b5060a083015160a083015260c083015160c083015260e083015160e083015261010080840151818401525061012080840151612046828501826001600160a01b03169052565b505061014092830151919092015290565b6000806000806080858703121561206d57600080fd5b8451935060208501516fffffffffffffffffffffffffffffffff8116811461209457600080fd5b6040860151606090960151949790965092505050565b60008160001904831182151516156120c4576120c4611ee1565b500290565b6000826120e657634e487b7160e01b600052601260045260246000fd5b500490565b60005b838110156121065781810151838201526020016120ee565b83811115612115576000848401525b50505050565b6000825161212d8184602087016120eb565b9190910192915050565b60208152600082518060208401526121568160408501602087016120eb565b601f01601f1916919091016040019291505056fea164736f6c634300080d000a",
  "linkReferences": {},
  "deployedLinkReferences": {}
}