{
  "_format": "hh-sol-artifact-1",
  "contractName": "TradingRewards",
  "sourceName": "contracts/TradingRewards.sol",
  "abi": [
    {
      "anonymous": false,
      "inputs": [
        {
          "indexed": true,
          "internalType": "address",
          "name": "previousOwner",
          "type": "address"
        },
        {
          "indexed": true,
          "internalType": "address",
          "name": "newOwner",
          "type": "address"
        }
      ],
      "name": "OwnershipTransferred",
      "type": "event"
    },
    {
      "anonymous": false,
      "inputs": [
        {
          "indexed": false,
          "internalType": "address",
          "name": "account",
          "type": "address"
        }
      ],
      "name": "Paused",
      "type": "event"
    },
    {
      "anonymous": false,
      "inputs": [
        {
          "indexed": true,
          "internalType": "address",
          "name": "user",
          "type": "address"
        },
        {
          "indexed": true,
          "internalType": "uint256",
          "name": "rewardRound",
          "type": "uint256"
        },
        {
          "indexed": false,
          "internalType": "uint256",
          "name": "amount",
          "type": "uint256"
        }
      ],
      "name": "RewardsClaim",
      "type": "event"
    },
    {
      "anonymous": false,
      "inputs": [
        {
          "indexed": false,
          "internalType": "uint256",
          "name": "amount",
          "type": "uint256"
        }
      ],
      "name": "TokenWithdrawnOwner",
      "type": "event"
    },
    {
      "anonymous": false,
      "inputs": [
        {
          "indexed": false,
          "internalType": "address",
          "name": "account",
          "type": "address"
        }
      ],
      "name": "Unpaused",
      "type": "event"
    },
    {
      "anonymous": false,
      "inputs": [
        {
          "indexed": true,
          "internalType": "uint256",
          "name": "rewardRound",
          "type": "uint256"
        }
      ],
      "name": "UpdateTradingRewards",
      "type": "event"
    },
    {
      "inputs": [],
      "name": "BUFFER_ADMIN_WITHDRAW",
      "outputs": [
        {
          "internalType": "uint256",
          "name": "",
          "type": "uint256"
        }
      ],
      "stateMutability": "view",
      "type": "function"
    },
    {
      "inputs": [
        {
          "internalType": "address",
          "name": "",
          "type": "address"
        }
      ],
      "name": "amountClaimedByUser",
      "outputs": [
        {
          "internalType": "uint256",
          "name": "",
          "type": "uint256"
        }
      ],
      "stateMutability": "view",
      "type": "function"
    },
    {
      "inputs": [
        {
          "internalType": "address",
          "name": "user",
          "type": "address"
        },
        {
          "internalType": "uint256",
          "name": "amount",
          "type": "uint256"
        },
        {
          "internalType": "bytes32[]",
          "name": "merkleProof",
          "type": "bytes32[]"
        }
      ],
      "name": "canClaim",
      "outputs": [
        {
          "internalType": "bool",
          "name": "",
          "type": "bool"
        },
        {
          "internalType": "uint256",
          "name": "",
          "type": "uint256"
        }
      ],
      "stateMutability": "view",
      "type": "function"
    },
    {
      "inputs": [
        {
          "internalType": "uint256",
          "name": "amount",
          "type": "uint256"
        },
        {
          "internalType": "bytes32[]",
          "name": "merkleProof",
          "type": "bytes32[]"
        }
      ],
      "name": "claim",
      "outputs": [],
      "stateMutability": "nonpayable",
      "type": "function"
    },
    {
      "inputs": [],
      "name": "currentRewardRound",
      "outputs": [
        {
          "internalType": "uint256",
          "name": "",
          "type": "uint256"
        }
      ],
      "stateMutability": "view",
      "type": "function"
    },
    {
      "inputs": [
        {
          "internalType": "uint256",
          "name": "",
          "type": "uint256"
        },
        {
          "internalType": "address",
          "name": "",
          "type": "address"
        }
      ],
      "name": "hasUserClaimedForRewardRound",
      "outputs": [
        {
          "internalType": "bool",
          "name": "",
          "type": "bool"
        }
      ],
      "stateMutability": "view",
      "type": "function"
    },
    {
      "inputs": [
        {
          "internalType": "address",
          "name": "_mpwrToken",
          "type": "address"
        }
      ],
      "name": "initialize",
      "outputs": [],
      "stateMutability": "nonpayable",
      "type": "function"
    },
    {
      "inputs": [],
      "name": "lastPausedTimestamp",
      "outputs": [
        {
          "internalType": "uint256",
          "name": "",
          "type": "uint256"
        }
      ],
      "stateMutability": "view",
      "type": "function"
    },
    {
      "inputs": [
        {
          "internalType": "uint256",
          "name": "",
          "type": "uint256"
        }
      ],
      "name": "merkleRootOfRewardRound",
      "outputs": [
        {
          "internalType": "bytes32",
          "name": "",
          "type": "bytes32"
        }
      ],
      "stateMutability": "view",
      "type": "function"
    },
    {
      "inputs": [
        {
          "internalType": "bytes32",
          "name": "",
          "type": "bytes32"
        }
      ],
      "name": "merkleRootUsed",
      "outputs": [
        {
          "internalType": "bool",
          "name": "",
          "type": "bool"
        }
      ],
      "stateMutability": "view",
      "type": "function"
    },
    {
      "inputs": [],
      "name": "mpwrToken",
      "outputs": [
        {
          "internalType": "contract IERC20Upgradeable",
          "name": "",
          "type": "address"
        }
      ],
      "stateMutability": "view",
      "type": "function"
    },
    {
      "inputs": [],
      "name": "owner",
      "outputs": [
        {
          "internalType": "address",
          "name": "",
          "type": "address"
        }
      ],
      "stateMutability": "view",
      "type": "function"
    },
    {
      "inputs": [],
      "name": "pauseDistribution",
      "outputs": [],
      "stateMutability": "nonpayable",
      "type": "function"
    },
    {
      "inputs": [],
      "name": "paused",
      "outputs": [
        {
          "internalType": "bool",
          "name": "",
          "type": "bool"
        }
      ],
      "stateMutability": "view",
      "type": "function"
    },
    {
      "inputs": [],
      "name": "renounceOwnership",
      "outputs": [],
      "stateMutability": "nonpayable",
      "type": "function"
    },
    {
      "inputs": [],
      "name": "rootOwnerAddress",
      "outputs": [
        {
          "internalType": "address",
          "name": "",
          "type": "address"
        }
      ],
      "stateMutability": "view",
      "type": "function"
    },
    {
      "inputs": [
        {
          "internalType": "address",
          "name": "newOwner",
          "type": "address"
        }
      ],
      "name": "transferOwnership",
      "outputs": [],
      "stateMutability": "nonpayable",
      "type": "function"
    },
    {
      "inputs": [],
      "name": "unpauseDistribution",
      "outputs": [],
      "stateMutability": "nonpayable",
      "type": "function"
    },
    {
      "inputs": [
        {
          "internalType": "address",
          "name": "_rootOwnerAddress",
          "type": "address"
        }
      ],
      "name": "updateRootOwnerAddress",
      "outputs": [],
      "stateMutability": "nonpayable",
      "type": "function"
    },
    {
      "inputs": [
        {
          "internalType": "bytes32",
          "name": "merkleRoot",
          "type": "bytes32"
        }
      ],
      "name": "updateTradingRewards",
      "outputs": [],
      "stateMutability": "nonpayable",
      "type": "function"
    },
    {
      "inputs": [
        {
          "internalType": "uint256",
          "name": "amount",
          "type": "uint256"
        }
      ],
      "name": "withdrawTokenRewards",
      "outputs": [],
      "stateMutability": "nonpayable",
      "type": "function"
    }
  ],
  "bytecode": "0x608060405234801561001057600080fd5b5061186d806100206000396000f3fe608060405234801561001057600080fd5b50600436106101775760003560e01c80638923e2f7116100d8578063ba42590d1161008c578063f2fde38b11610066578063f2fde38b14610325578063f5271ff514610338578063fa4619741461034b57600080fd5b8063ba42590d146102c5578063c4d66de8146102e8578063dc38bdb5146102fb57600080fd5b80639ea76f34116100bd5780639ea76f341461027c578063a20bd974146102aa578063b94ec9d0146102bd57600080fd5b80638923e2f7146102445780638da5cb5b1461025757600080fd5b80635665b7bb1161012f5780635c975abb116101145780635c975abb14610205578063715018a61461021c57806384483c861461022457600080fd5b80635665b7bb146101df57806357b0157c146101f257600080fd5b80632f52ebb7116101605780632f52ebb7146101a257806331cec7a3146101b75780633b66f49d146101bf57600080fd5b80631040faf91461017c578063141fd8c814610198575b600080fd5b61018560ca5481565b6040519081526020015b60405180910390f35b6101856203f48081565b6101b56101b0366004611640565b610354565b005b6101b5610560565b6101856101cd3660046116a8565b60cd6020526000908152604090205481565b6101b56101ed3660046116c3565b61060e565b6101b56102003660046116a8565b6106f9565b60975460ff165b604051901515815260200161018f565b6101b5610833565b6101856102323660046116c3565b60ce6020526000908152604090205481565b6101b56102523660046116c3565b610897565b6065546001600160a01b03165b6040516001600160a01b03909116815260200161018f565b61020c61028a3660046116dc565b60d060209081526000928352604080842090915290825290205460ff1681565b60c954610264906001600160a01b031681565b6101b56109e6565b61020c6102d33660046116c3565b60cf6020526000908152604090205460ff1681565b6101b56102f63660046116a8565b610a91565b61030e610309366004611708565b610c06565b60408051921515835260208301919091520161018f565b6101b56103333660046116a8565b610c23565b60cc54610264906001600160a01b031681565b61018560cb5481565b60975460ff161561039f5760405162461bcd60e51b815260206004820152601060248201526f14185d5cd8589b194e881c185d5cd95960821b60448201526064015b60405180910390fd5b6002600154036103f15760405162461bcd60e51b815260206004820152601f60248201527f5265656e7472616e637947756172643a207265656e7472616e742063616c6c006044820152606401610396565b600260015560ca54600090815260d06020908152604080832033845290915290205460ff16156104635760405162461bcd60e51b815260206004820152601860248201527f526577617264733a20416c726561647920636c61696d656400000000000000006044820152606401610396565b60008061047233868686610d05565b91509150816104c35760405162461bcd60e51b815260206004820152601660248201527f526577617264733a20496e76616c69642070726f6f66000000000000000000006044820152606401610396565b60ca54600090815260d0602090815260408083203384528252808320805460ff1916600117905560cd90915281208054839290610501908490611778565b909155505060c95461051d906001600160a01b03163383610dee565b60ca5460405182815233907fe8dbd8c18906df11a70832fe7c874d1fddf6952cee2320658d669256183879999060200160405180910390a3505060018055505050565b6065546001600160a01b031633146105ba5760405162461bcd60e51b815260206004820181905260248201527f4f776e61626c653a2063616c6c6572206973206e6f7420746865206f776e65726044820152606401610396565b60975460ff16156106005760405162461bcd60e51b815260206004820152601060248201526f14185d5cd8589b194e881c185d5cd95960821b6044820152606401610396565b4260cb5561060c610e5a565b565b6065546001600160a01b0316331480610631575060cc546001600160a01b031633145b6106a35760405162461bcd60e51b815260206004820152602e60248201527f4f776e61626c653a2063616c6c6572206973206e6f7420746865206f776e657260448201527f206f7220726f6f74206f776e65720000000000000000000000000000000000006064820152608401610396565b60ca80549060006106b383611790565b909155505060ca8054600090815260ce6020526040808220849055915491517f0b1d6b49e69d133866d064a73f0181e1e35aa94fde3ef0095587d7ebd0423caa9190a250565b60026001540361074b5760405162461bcd60e51b815260206004820152601f60248201527f5265656e7472616e637947756172643a207265656e7472616e742063616c6c006044820152606401610396565b60026001556065546001600160a01b031633146107aa5760405162461bcd60e51b815260206004820181905260248201527f4f776e61626c653a2063616c6c6572206973206e6f7420746865206f776e65726044820152606401610396565b6001600160a01b0381166108005760405162461bcd60e51b815260206004820181905260248201527f496e76616c696420726f6f744f776e65724164647265737320616464726573736044820152606401610396565b60cc805473ffffffffffffffffffffffffffffffffffffffff19166001600160a01b039290921691909117905560018055565b6065546001600160a01b0316331461088d5760405162461bcd60e51b815260206004820181905260248201527f4f776e61626c653a2063616c6c6572206973206e6f7420746865206f776e65726044820152606401610396565b61060c6000610ef2565b6065546001600160a01b031633146108f15760405162461bcd60e51b815260206004820181905260248201527f4f776e61626c653a2063616c6c6572206973206e6f7420746865206f776e65726044820152606401610396565b60975460ff1661093a5760405162461bcd60e51b815260206004820152601460248201527314185d5cd8589b194e881b9bdd081c185d5cd95960621b6044820152606401610396565b6203f48060cb5461094b9190611778565b42116109995760405162461bcd60e51b815260206004820152601c60248201527f4f776e65723a20546f6f206561726c7920746f207769746864726177000000006044820152606401610396565b60c9546109b0906001600160a01b03163383610dee565b6040518181527fb4cd5c4a08bbed33abfe773ece179d156730e39629e065b7dcd8263027387c1d9060200160405180910390a150565b6065546001600160a01b03163314610a405760405162461bcd60e51b815260206004820181905260248201527f4f776e61626c653a2063616c6c6572206973206e6f7420746865206f776e65726044820152606401610396565b60975460ff16610a895760405162461bcd60e51b815260206004820152601460248201527314185d5cd8589b194e881b9bdd081c185d5cd95960621b6044820152606401610396565b61060c610f51565b600054610100900460ff16610aac5760005460ff1615610ab0565b303b155b610b225760405162461bcd60e51b815260206004820152602e60248201527f496e697469616c697a61626c653a20636f6e747261637420697320616c72656160448201527f647920696e697469616c697a65640000000000000000000000000000000000006064820152608401610396565b600054610100900460ff16158015610b44576000805461ffff19166101011790555b6001600160a01b038216610b9a5760405162461bcd60e51b815260206004820152601560248201527f496e76616c696420746f6b656e206164647265737300000000000000000000006044820152606401610396565b610ba2610fcb565b610baa611036565b610bb26110a9565b610bba61111c565b60c980546001600160a01b03841673ffffffffffffffffffffffffffffffffffffffff199182161790915560cc8054909116331790558015610c02576000805461ff00191690555b5050565b600080610c1586868686610d05565b915091505b94509492505050565b6065546001600160a01b03163314610c7d5760405162461bcd60e51b815260206004820181905260248201527f4f776e61626c653a2063616c6c6572206973206e6f7420746865206f776e65726044820152606401610396565b6001600160a01b038116610cf95760405162461bcd60e51b815260206004820152602660248201527f4f776e61626c653a206e6577206f776e657220697320746865207a65726f206160448201527f64647265737300000000000000000000000000000000000000000000000000006064820152608401610396565b610d0281610ef2565b50565b6040516bffffffffffffffffffffffff19606086901b16602082015260348101849052600090819081906054016040516020818303038152906040528051906020012090506000610d99868680806020026020016040519081016040528093929190818152602001838360200280828437600092018290525060ca54815260ce6020526040902054925086915061118f9050565b9050801580610dcd575060ca54600090815260d0602090815260408083206001600160a01b038c16845290915290205460ff165b15610de057600080935093505050610c1a565b600187935093505050610c1a565b604080516001600160a01b038416602482015260448082018490528251808303909101815260649091019091526020810180517bffffffffffffffffffffffffffffffffffffffffffffffffffffffff1663a9059cbb60e01b179052610e559084906111a7565b505050565b60975460ff1615610ea05760405162461bcd60e51b815260206004820152601060248201526f14185d5cd8589b194e881c185d5cd95960821b6044820152606401610396565b6097805460ff191660011790557f62e78cea01bee320cd4e420270b5ea74000d11b0c9f74754ebdbfc544b05a258610ed53390565b6040516001600160a01b03909116815260200160405180910390a1565b606580546001600160a01b0383811673ffffffffffffffffffffffffffffffffffffffff19831681179093556040519116919082907f8be0079c531659141344cd1fd0a4f28419497f9722a3daafe3b4186f6b6457e090600090a35050565b60975460ff16610f9a5760405162461bcd60e51b815260206004820152601460248201527314185d5cd8589b194e881b9bdd081c185d5cd95960621b6044820152606401610396565b6097805460ff191690557f5db9ee0a495bf2e6ff9c91a7834c1ba4fdd244a5e8aa4e537bd38aeae4b073aa33610ed5565b600054610100900460ff1661060c5760405162461bcd60e51b815260206004820152602b60248201527f496e697469616c697a61626c653a20636f6e7472616374206973206e6f74206960448201526a6e697469616c697a696e6760a81b6064820152608401610396565b600054610100900460ff166110a15760405162461bcd60e51b815260206004820152602b60248201527f496e697469616c697a61626c653a20636f6e7472616374206973206e6f74206960448201526a6e697469616c697a696e6760a81b6064820152608401610396565b61060c61128c565b600054610100900460ff166111145760405162461bcd60e51b815260206004820152602b60248201527f496e697469616c697a61626c653a20636f6e7472616374206973206e6f74206960448201526a6e697469616c697a696e6760a81b6064820152608401610396565b61060c611300565b600054610100900460ff166111875760405162461bcd60e51b815260206004820152602b60248201527f496e697469616c697a61626c653a20636f6e7472616374206973206e6f74206960448201526a6e697469616c697a696e6760a81b6064820152608401610396565b61060c611371565b60008261119c85846113e8565b1490505b9392505050565b60006111fc826040518060400160405280602081526020017f5361666545524332303a206c6f772d6c6576656c2063616c6c206661696c6564815250856001600160a01b031661145c9092919063ffffffff16565b805190915015610e55578080602001905181019061121a91906117a9565b610e555760405162461bcd60e51b815260206004820152602a60248201527f5361666545524332303a204552433230206f7065726174696f6e20646964206e60448201527f6f742073756363656564000000000000000000000000000000000000000000006064820152608401610396565b600054610100900460ff166112f75760405162461bcd60e51b815260206004820152602b60248201527f496e697469616c697a61626c653a20636f6e7472616374206973206e6f74206960448201526a6e697469616c697a696e6760a81b6064820152608401610396565b61060c33610ef2565b600054610100900460ff1661136b5760405162461bcd60e51b815260206004820152602b60248201527f496e697469616c697a61626c653a20636f6e7472616374206973206e6f74206960448201526a6e697469616c697a696e6760a81b6064820152608401610396565b60018055565b600054610100900460ff166113dc5760405162461bcd60e51b815260206004820152602b60248201527f496e697469616c697a61626c653a20636f6e7472616374206973206e6f74206960448201526a6e697469616c697a696e6760a81b6064820152608401610396565b6097805460ff19169055565b600081815b845181101561145457600085828151811061140a5761140a6117cb565b602002602001015190508083116114305760008381526020829052604090209250611441565b600081815260208490526040902092505b508061144c81611790565b9150506113ed565b509392505050565b606061146b8484600085611473565b949350505050565b6060824710156114eb5760405162461bcd60e51b815260206004820152602660248201527f416464726573733a20696e73756666696369656e742062616c616e636520666f60448201527f722063616c6c00000000000000000000000000000000000000000000000000006064820152608401610396565b6001600160a01b0385163b6115425760405162461bcd60e51b815260206004820152601d60248201527f416464726573733a2063616c6c20746f206e6f6e2d636f6e74726163740000006044820152606401610396565b600080866001600160a01b0316858760405161155e9190611811565b60006040518083038185875af1925050503d806000811461159b576040519150601f19603f3d011682016040523d82523d6000602084013e6115a0565b606091505b50915091506115b08282866115bb565b979650505050505050565b606083156115ca5750816111a0565b8251156115da5782518084602001fd5b8160405162461bcd60e51b8152600401610396919061182d565b60008083601f84011261160657600080fd5b50813567ffffffffffffffff81111561161e57600080fd5b6020830191508360208260051b850101111561163957600080fd5b9250929050565b60008060006040848603121561165557600080fd5b83359250602084013567ffffffffffffffff81111561167357600080fd5b61167f868287016115f4565b9497909650939450505050565b80356001600160a01b03811681146116a357600080fd5b919050565b6000602082840312156116ba57600080fd5b6111a08261168c565b6000602082840312156116d557600080fd5b5035919050565b600080604083850312156116ef57600080fd5b823591506116ff6020840161168c565b90509250929050565b6000806000806060858703121561171e57600080fd5b6117278561168c565b935060208501359250604085013567ffffffffffffffff81111561174a57600080fd5b611756878288016115f4565b95989497509550505050565b634e487b7160e01b600052601160045260246000fd5b6000821982111561178b5761178b611762565b500190565b6000600182016117a2576117a2611762565b5060010190565b6000602082840312156117bb57600080fd5b815180151581146111a057600080fd5b634e487b7160e01b600052603260045260246000fd5b60005b838110156117fc5781810151838201526020016117e4565b8381111561180b576000848401525b50505050565b600082516118238184602087016117e1565b9190910192915050565b602081526000825180602084015261184c8160408501602087016117e1565b601f01601f1916919091016040019291505056fea164736f6c634300080d000a",
  "linkReferences": {},
  "deployedLinkReferences": {}
}